:020000040800F2
:1000000000500020412B0008892B0008892B000894
:10001000892B0008892B0008892B000800000000AC
:10002000000000000000000000000000892B000814
:10003000892B000800000000892B0008D10100086E
:10004000892B0008892B0008892B0008892B0008C0
:10005000892B0008892B0008892B0008892B0008B0
:10006000892B0008892B0008892B0008892B0008A0
:10007000892B0008892B0008892B0008892B000890
:10008000892B0008892B0008892B0008892B000880
:10009000892B0008892B0008892B0008892B000870
:1000A000892B0008892B0008892B0008892B000860
:1000B000892B0008892B0008892B0008892B000850
:1000C000892B0008892B0008892B0008892B000840
:1000D000892B0008BD010008892B0008892B000826
:1000E000892B0008892B0008892B000800000000DC
:1000F0000000000000000000000000000000000000
:0C01000000000000000000005FF808F1A3
:10010C0010F8012B11F8013B012A28BF9A42F7D0B5
:10011C00D01A7047034613F8012B002AFBD1181A8A
:10012C00013870470348044B834202D0034B03B1A0
:10013C00184770476000002060000020000000009D
:10014C000548064B1B1AD90F01EBA301491002D02D
:10015C00034B03B11847704760000020600000207B
:10016C000000000010B5064C237843B9FFF7DAFF06
:10017C00044B13B10448AFF300800123237010BD6E
:10018C0060000020000000007436000808B5054B24
:10019C001BB105490548AFF30080BDE80840FFF7E7
:1001AC00CFBF00BF000000006400002074360008C0
:1001BC0080B500AF024801F07FFB00BF80BD00BFDF
:1001CC00C400002080B500AF00F00AFB00F037FC43
:1001DC0000BF80BD80B485B000AF78607B681B68C1
:1001EC00B3F1804F0BD1084BDB69074A43F0010395
:1001FC00D361054BDB6903F00103FB60FB6800BFB7
:10020C001437BD4680BC70470010024080B588B0E2
:10021C0000AF786007F1100300221A605A609A60F0
:10022C00DA607B681B68204A934239D11F4B9B696B
:10023C001E4A43F4804393611C4B9B6903F4804337
:10024C00FB60FB68194B9B69184A43F004039361EC
:10025C00164B9B6903F00403BB60BB684FF400733F
:10026C003B6102237B610323FB6107F110031946F9
:10027C000F4800F0A3FC4FF480633B6100237B61CB
:10028C000023BB6107F110031946094800F096FCE6
:10029C0000220021252000F09CFB252000F0B5FB5E
:1002AC0000BF2037BD4680BD003801400010024021
:1002BC000008014080B485B000AF154B9B69144A0F
:1002CC0043F001039361124B9B6903F00103BB6084
:1002DC00BB680F4BDB690E4A43F08053D3610C4B68
:1002EC00DB6903F080537B607B680A4B5B68FB60C7
:1002FC00FB6823F0E063FB60FB6843F00073FB607A
:10030C00044AFB68536000BF1437BD4680BC70477D
:10031C00001002400000014080B500AF00F01AFA56
:10032C0000F0C6F900F0AEF900F03EF900F080F9EB
:10033C000021064802F08CF8002000F03DF8012264
:10034C000349044801F093FA00BFFDE77C0000204C
:10035C000C010020C400002080B588B000AF78608C
:10036C0007F1100300221A605A609A60DA607B6809
:10037C001B68B3F1804F17D10D4B9B690C4A43F0AE
:10038C00040393610A4B9B6903F00403FB60FB6855
:10039C0001233B6102237B610223FB6107F1100304
:1003AC001946044800F00AFC00BF2037BD4680BD4A
:1003BC00001002400008014080B485B000AF034635
:1003CC00FB71FB79642B01D96423FB71094BDB684E
:1003DC00FA7902FB03F3084AA2FB03235B09FB60D7
:1003EC00044B1B68FA685A6300BF1437BD4680BCC7
:1003FC00704700BF7C0000201F85EB5180B582B098
:10040C0000AF78607868FFF785FE03469AB24FF02C
:10041C00FF337968034801F09FF900BF0837BD46E8
:10042C0080BD00BFC400002080B582B000AF7860F2
:10043C007B681B681D4A934233D11D4B1B78212BC3
:10044C0010D11C4B1B781A461B4B0021995400F001
:10045C0037F8184B00221A7020220021164802F09F
:10046C0039FC19E0134B1B781E2B0DD8114B1B7844
:10047C001A460F4B1978104B99540E4B1B780133BD
:10048C00DAB20C4B1A7007E00A4B00221A702022C9
:10049C000021094802F01EFC01220549074801F021
:1004AC00E6F900BF0837BD4680BD00BF00380140EB
:1004BC000C0100203001002010010020C40000209D
:1004CC0080B594B000AF2F492F48FFF719FE0346B3
:1004DC00002B08D12D4B01221A702D4B1B7818467E
:1004EC00FFF76AFF49E02B492748FFF709FE03464F
:1004FC00002B06D1254B00221A700020FFF75CFF61
:10050C003BE004222449204802F0FAFB0346002B6E
:10051C001BD1224BFB642521F86C02F0E3FBB86481
:10052C00BB6C00221A70F86C02F029FB78647B6CAF
:10053C00DAB2174B1A70154B1B78012B1DD1144BCB
:10054C001B781846FFF738FF17E015490E48FFF7E0
:10055C00D7FD0346002B10D10C4B1B78002B01D080
:10056C00084A00E00B4A0A4B1B78381D0D4902F073
:10057C008FFB3B1D1846FFF741FF00BF5037BD46B0
:10058C0080BD00BF8C360008100100203101002016
:10059C00000000209036000894360008140100205A
:1005AC009C360008A436000880B588B000AF3B1D0F
:1005BC0000221A605A609A60DA601A615A619A6174
:1005CC001A4B4FF080421A60184B47225A60174B57
:1005DC0000229A60154B40F2E732DA60134B00228E
:1005EC001A61124B00229A61104801F0E1FE034699
:1005FC00002B01D000F0A1F860237B600023BB60CE
:10060C000023FB6000237B613B1D00221946074839
:10061C0001F0C0FF0346002B01D000F08EF8034818
:10062C00FFF79AFE00BF2037BD4680BD7C0000203E
:10063C0080B500AF114B124A1A60104B4FF4E132E7
:10064C005A600E4B00229A600C4B0022DA600B4B66
:10065C0000221A61094B0C225A61084B00229A6144
:10066C00064B0022DA61054801F026F80346002B00
:10067C0001D000F062F800BF80BD00BFC4000020B4
:10068C000038014080B483B000AF084B9B69074A27
:10069C0043F004039361054B9B6903F004037B60F7
:1006AC007B6800BF0C37BD4680BC70470010024011
:1006BC0080B590B000AF07F118032822002118462E
:1006CC0002F008FB3B1D00221A605A609A60DA6047
:1006DC001A610123BB614FF48033FB6100233B6241
:1006EC000123BB6202237B634FF48033BB634FF463
:1006FC00E013FB6307F11803184600F0CDFB03462B
:10070C00002B01D000F019F80F237B600223BB6093
:10071C000023FB604FF480633B6100237B613B1D36
:10072C000221184600F03AFE0346002B01D000F0DF
:10073C0004F800BF4037BD4680BD80B400AF72B630
:10074C0000BF00BFFDE780B400AF00BFBD4680BC5A
:10075C007047000080B500AF084B1B68074A43F098
:10076C0010031360032000F029F90F2000F008F8A3
:10077C00FFF7A0FD0023184680BD00BF00200240FB
:10078C0080B582B000AF7860124B1A68124B1B78A0
:10079C0019464FF47A73B3FBF1F3B2FBF3F318463B
:1007AC0000F041F90346002B01D001230EE07B68D9
:1007BC000F2B0AD8002279684FF0FF3000F009F9AE
:1007CC00064A7B681360002300E0012318460837B3
:1007DC00BD4680BD040000200C0000200800002055
:1007EC0080B400AF054B1B781A46054B1B681344AD
:1007FC00034A136000BFBD4680BC70470C0000204C
:10080C003401002080B400AF024B1B681846BD4673
:10081C0080BC70473401002080B485B000AF786094
:10082C007B6803F00703FB600C4BDB68BB60BA68AA
:10083C004FF6FF031340BB60FB681A02BB681343FF
:10084C0043F0BF6343F40033BB60044ABB68D3601E
:10085C0000BF1437BD4680BC704700BF00ED00E000
:10086C0080B400AF044BDB681B0A03F00703184687
:10087C00BD4680BC704700BF00ED00E080B483B083
:10088C0000AF0346FB7197F90730002B0BDBFB79AC
:10089C0003F01F02064997F907305B09012000FAA3
:1008AC0002F241F8232000BF0C37BD4680BC7047D4
:1008BC0000E100E080B483B000AF03463960FB7107
:1008CC0097F90730002B0ADB3B68DAB20C4997F931
:1008DC0007301201D2B20B4483F800230AE03B68C4
:1008EC00DAB20849FB7903F00F03043B1201D2B2D0
:1008FC000B441A7600BF0C37BD4680BC704700BF56
:10090C0000E100E000ED00E080B489B000AFF860D9
:10091C00B9607A60FB6803F007037B617B69033B7A
:10092C00042B04D87B69C3F10703FB6101E00423AA
:10093C00FB617B690433062B03D97B69033BBB61E9
:10094C0001E00023BB614FF0FF32FB6902FA03F3B5
:10095C00DA43BB681A40BB699A404FF0FF31BB6960
:10096C0001FA03F3D9437B680B4013431846243731
:10097C00BD4680BC7047000080B582B000AF786087
:10098C007B68013BB3F1807F01D301230FE00A4A5E
:10099C007B68013B53600F214FF0FF30FFF78AFF5C
:1009AC00054B00229A60044B07221A60002318465C
:1009BC000837BD4680BD00BF10E000E080B582B0B6
:1009CC0000AF78607868FFF727FF00BF0837BD4697
:1009DC0080BD80B586B000AF0346B9607A60FB730A
:1009EC0000237B61FFF73CFF78617A68B96878690E
:1009FC00FFF78AFF024697F90F3011461846FFF7AA
:100A0C0059FF00BF1837BD4680BD80B582B000AF1E
:100A1C000346FB7197F907301846FFF72FFF00BF0D
:100A2C000837BD4680BD80B582B000AF786078686D
:100A3C00FFF7A2FF034618460837BD4680BD80B5B8
:100A4C0000AF00F002F800BF80BD80B400AF00BF63
:100A5C00BD4680BC704780B485B000AF7860002381
:100A6C00FB737B6893F82130DBB2022B08D07B68D8
:100A7C0004229A637B68002283F82020012320E063
:100A8C007B681B681A687B681B6822F00E021A6070
:100A9C007B681B681A687B681B6822F001021A606D
:100AAC007B681A6C7B68DB6B012101FA02F25A60DD
:100ABC007B68012283F821207B68002283F82020A8
:100ACC00FB7B18461437BD4680BC704780B584B09C
:100ADC0000AF78600023FB737B6893F82130DBB2A6
:100AEC00022B05D07B6804229A630123FB7351E02F
:100AFC007B681B681A687B681B6822F00E021A6000
:100B0C007B681B681A687B681B6822F001021A60FC
:100B1C007B681B68224A934229D07B681B68214A58
:100B2C00934222D07B681B681F4A93421AD07B6881
:100B3C001B681E4A934212D07B681B681C4A934266
:100B4C000AD07B681B681B4A934202D14FF4801376
:100B5C000EE04FF080730BE04FF4803308E04FF45D
:100B6C00805305E04FF4807302E0102300E0012372
:100B7C00114A53607B68012283F821207B68002294
:100B8C0083F820207B685B6B002B03D07B685B6B4E
:100B9C0078689847FB7B18461037BD4680BD00BF70
:100BAC00080002401C000240300002404400024099
:100BBC00580002406C0002400000024080B48BB030
:100BCC0000AF7860396000237B6200233B6253E105
:100BDC0001227B6A02FA03F37B613B681B687A692A
:100BEC0013403B613A697B699A4240F042813B6811
:100BFC005B688F4A934247D08D4A93425ED88D4AA8
:100C0C00934241D08B4A934258D88B4A93423BD063
:100C1C00894A934252D8894A934235D0874A9342A3
:100C2C004CD8874A93422FD0854A934246D8854A5E
:100C3C00934229D0834A934240D8122B1FD0122BB7
:100C4C003CD8112B11D0112B38D8032B33D0032BBC
:100C5C0034D8022B0ED0022B30D8002B14D0012B01
:100C6C002CD13B68DB683B6229E03B68DB680433D2
:100C7C003B6224E03B68DB6808333B621FE03B6867
:100C8C00DB680C333B621AE03B689B68002B02D19B
:100C9C0004233B6213E03B689B68012B05D10823BE
:100CAC003B627B687A691A6109E008233B627B68C6
:100CBC007A695A6103E000233B6200E000BF3B69A4
:100CCC00FF2B02D87B68FB6102E07B680433FB617D
:100CDC003B69FF2B03D87B6A9B00BB6103E07B6AFB
:100CEC00083B9B00BB61FB691A680F21BB6901FAC9
:100CFC0003F3DB431A40396ABB6901FA03F31A4365
:100D0C00FB691A603B685B6803F08053002B00F0B2
:100D1C00B0804D4B9B694C4A43F0010393614A4BA5
:100D2C009B6903F00103BB60BB68484A7B6A9B0864
:100D3C00023352F82330FB607B6A03F003039B0001
:100D4C000F2202FA03F3DB43FA681340FB607B6863
:100D5C003F4A934213D07B683E4A93420DD07B6846
:100D6C003D4A934207D07B683C4A934201D103230E
:100D7C0006E0042304E0022302E0012300E0002348
:100D8C007A6A02F0030292009340FA681343FB6004
:100D9C002E497B6A9B080233FA6841F823203B6892
:100DAC005B6803F48013002B06D02D4B9A682C49FA
:100DBC003B6913438B6006E0294B9A683B69DB4324
:100DCC00274913408B603B685B6803F40013002BCE
:100DDC0006D0234BDA6822493B691343CB6006E00B
:100DEC001F4BDA683B69DB431D491340CB603B6802
:100DFC005B6803F40033002B06D0194B5A68184972
:100E0C003B6913434B6006E0154B5A683B69DB4367
:100E1C00134913404B603B685B6803F48033002B31
:100E2C0020D00F4B1A680E493B6913430B6020E02E
:100E3C0000003210000031100000221000002110C0
:100E4C0000001210000011100010024000000140C0
:100E5C0000080140000C014000100140001401404A
:100E6C00000401400B4B1A683B69DB4309491340F2
:100E7C000B607B6A01337B623B681A687B6A22FADF
:100E8C0003F3002B7FF4A4AE00BF00BF2C37BD468C
:100E9C0080BC70470004014080B586B000AF78601C
:100EAC007B68002B01D1012372E27B681B6803F085
:100EBC000103002B00F08780924B5B6803F00C035E
:100ECC00042B0CD08F4B5B6803F00C03082B12D156
:100EDC008C4B5B6803F48033B3F5803F0BD1894BAB
:100EEC001B6803F40033002B6CD07B685B68002B11
:100EFC0068D101234CE27B685B68B3F5803F06D177
:100F0C00804B1B687F4A43F4803313602EE07B6870
:100F1C005B68002B0CD17B4B1B687A4A23F4803323
:100F2C001360784B1B68774A23F4802313601DE011
:100F3C007B685B68B3F5A02F0CD1724B1B68714AB0
:100F4C0043F4802313606F4B1B686E4A43F4803369
:100F5C0013600BE06B4B1B686A4A23F480331360FD
:100F6C00684B1B68674A23F4802313607B685B68BB
:100F7C00002B13D0FFF746FC386108E0FFF742FC6A
:100F8C0002463B69D31A642B01D9032300E25D4B63
:100F9C001B6803F40033002BF0D014E0FFF732FC95
:100FAC00386108E0FFF72EFC02463B69D31A642B2C
:100FBC0001D90323ECE1534B1B6803F40033002BE2
:100FCC00F0D100E000BF7B681B6803F00203002B2C
:100FDC0063D04C4B5B6803F00C03002B0BD0494BDC
:100FEC005B6803F00C03082B1CD1464B5B6803F4C5
:100FFC008033002B16D1434B1B6803F00203002BEC
:10100C0005D07B681B69012B01D00123C0E13D4B4E
:10101C001B6823F0F8027B685B69DB0039491343DA
:10102C000B603AE07B681B69002B20D0364B012209
:10103C001A60FFF7E7FB386108E0FFF7E3FB0246B5
:10104C003B69D31A022B01D90323A1E12D4B1B6859
:10105C0003F00203002BF0D02A4B1B6823F0F8029C
:10106C007B685B69DB00274913430B6015E0264B5B
:10107C0000221A60FFF7C6FB386108E0FFF7C2FBDD
:10108C0002463B69D31A022B01D9032380E11D4B85
:10109C001B6803F00203002BF0D17B681B6803F084
:1010AC000803002B3AD07B689B69002B19D0174B97
:1010BC0001221A60FFF7A6FB386108E0FFF7A2FBDC
:1010CC0002463B69D31A022B01D9032360E10D4B75
:1010DC005B6A03F00203002BF0D0012000F0CEFA83
:1010EC001CE00A4B00221A60FFF78CFB38610FE002
:1010FC00FFF788FB02463B69D31A022B08D903235E
:10110C0046E100BF0010024000004242800442420F
:10111C00924B5B6A03F00203002BE9D17B681B68DE
:10112C0003F00403002B00F0A6800023FB758B4B0F
:10113C00DB6903F08053002B0DD1884BDB69874AA8
:10114C0043F08053D361854BDB6903F08053BB6064
:10115C00BB680123FB75824B1B6803F48073002B67
:10116C0018D17F4B1B687E4A43F480731360FFF7E2
:10117C0049FB386108E0FFF745FB02463B69D31A8F
:10118C00642B01D9032303E1754B1B6803F48073B3
:10119C00002BF0D07B68DB68012B06D16F4B1B6AF0
:1011AC006E4A43F0010313622DE07B68DB68002B71
:1011BC000CD16A4B1B6A694A23F001031362674B1B
:1011CC001B6A664A23F0040313621CE07B68DB682D
:1011DC00052B0CD1614B1B6A604A43F0040313626C
:1011EC005E4B1B6A5D4A43F0010313620BE05B4BE1
:1011FC001B6A5A4A23F001031362584B1B6A574A65
:10120C0023F0040313627B68DB68002B15D0FFF717
:10121C00F9FA38610AE0FFF7F5FA02463B69D31A8E
:10122C0041F28832934201D90323B1E04B4B1B6A44
:10123C0003F00203002BEED014E0FFF7E3FA386161
:10124C000AE0FFF7DFFA02463B69D31A41F2883213
:10125C00934201D903239BE0404B1B6A03F002032A
:10126C00002BEED1FB7D012B05D13C4BDB693B4ABE
:10127C0023F08053D3617B68DB69002B00F08780FF
:10128C00364B5B6803F00C03082B61D07B68DB6981
:10129C00022B46D1334B00221A60FFF7B3FA3861A8
:1012AC0008E0FFF7AFFA02463B69D31A022B01D9CB
:1012BC0003236DE0294B1B6803F00073002BF0D166
:1012CC007B681B6AB3F5803F08D1244B5B6823F421
:1012DC0000327B689B68214913434B601F4B5B6852
:1012EC0023F474127B68196A7B685B6A0B431B4995
:1012FC0013434B601B4B01221A60FFF783FA3861D2
:10130C0008E0FFF77FFA02463B69D31A022B01D99A
:10131C0003233DE0114B1B6803F00073002BF0D04E
:10132C0035E0104B00221A60FFF76CFA386108E0C8
:10133C00FFF768FA02463B69D31A022B01D9032343
:10134C0026E0064B1B6803F00073002BF0D11EE067
:10135C007B68DB69012B07D1012319E000100240E7
:10136C0000700040600042420B4B5B68FB60FB6806
:10137C0003F480327B681B6A9A4206D1FB6803F443
:10138C0070127B685B6A9A4201D0012300E0002353
:10139C0018461837BD4680BD0010024080B584B099
:1013AC0000AF786039607B68002B01D10123D0E05D
:1013BC006A4B1B6803F007033A689A4210D9674BD3
:1013CC001B6823F0070265493B6813430B60634BB2
:1013DC001B6803F007033A689A4201D00123B8E076
:1013EC007B681B6803F00203002B20D07B681B6812
:1013FC0003F00403002B05D0594B5B68584A43F4A7
:10140C00E06353607B681B6803F00803002B05D076
:10141C00534B5B68524A43F460535360504B5B68C8
:10142C0023F0F0027B689B684D4913434B607B684B
:10143C001B6803F00103002B40D07B685B68012B19
:10144C0007D1474B1B6803F40033002B15D1012344
:10145C007FE07B685B68022B07D1414B1B6803F074
:10146C000073002B09D1012373E03D4B1B6803F083
:10147C000203002B01D101236BE0394B5B6823F095
:10148C0003027B685B68364913434B60FFF7BAF97C
:10149C00F8600AE0FFF7B6F90246FB68D31A41F28E
:1014AC008832934201D9032353E02D4B5B6803F040
:1014BC000C027B685B689B009A42EBD1274B1B6844
:1014CC0003F007033A689A4210D2244B1B6823F0AE
:1014DC00070222493B6813430B60204B1B6803F047
:1014EC0007033A689A4201D0012332E07B681B68FB
:1014FC0003F00403002B08D0194B5B6823F4E06263
:10150C007B68DB68164913434B607B681B6803F0F0
:10151C000803002B09D0124B5B6823F460527B68E4
:10152C001B69DB000E4913434B6000F021F80246A7
:10153C000B4B5B681B0903F00F030A49CB5C22FAC7
:10154C0003F3094A1360094B1B681846FFF718F997
:10155C00002318461037BD4680BD00BF0020024056
:10156C0000100240BC3600080400002008000020D7
:10157C0080B487B000AF0023FB600023BB60002366
:10158C007B6100237B6000233B611E4B5B68FB602F
:10159C00FB6803F00C03042B02D0082B03D027E0CC
:1015AC00194B3B6127E0FB689B0C03F00F03174AB8
:1015BC00D35C7B60FB6803F48033002B10D0114BA1
:1015CC005B685B0C03F00103114AD35CBB607B6866
:1015DC000D4A03FB02F2BB68B2FBF3F37B6104E040
:1015EC007B680C4A02FB03F37B617B693B6102E085
:1015FC00054B3B6100BF3B6918461C37BD4680BCA0
:10160C00704700BF0010024000127A00D436000868
:10161C00E436000800093D0080B400AF024B1B68A3
:10162C001846BD4680BC70470400002080B500AF52
:10163C00FFF7F2FF0246054B5B681B0A03F007033A
:10164C000349CB5C22FA03F3184680BD001002401C
:10165C00CC36000880B500AFFFF7DEFF0246054B25
:10166C005B68DB0A03F007030349CB5C22FA03F344
:10167C00184680BD00100240CC36000880B485B0FE
:10168C0000AF78600A4B1B680A4AA2FB03235B0A73
:10169C007A6802FB03F3FB6000BFFB685A1EFA601A
:1016AC00002BF9D100BF00BF1437BD4680BC70477A
:1016BC0004000020D34D621080B582B000AF78607A
:1016CC007B68002B01D1012342E07B6893F8413009
:1016DC00DBB2002B06D17B68002283F840207868AF
:1016EC00FEF794FD7B68242283F841207B681B68FD
:1016FC00DA687B681B6822F40052DA60786800F0C4
:10170C00C9FD7B681B681A697B681B6822F49042D0
:10171C001A617B681B685A697B681B6822F02A0275
:10172C005A617B681B68DA687B681B6842F400525C
:10173C00DA607B6800225A647B68202283F841209F
:10174C007B68202283F842207B6800225A630023A6
:10175C0018460837BD4680BD80B58AB002AFF86028
:10176C00B9603B601346FB8000237B61FB6893F8F8
:10177C004130DBB2202B75D1BB68002B02D0FB882B
:10178C00002B01D101236EE0FB6800225A64FB6838
:10179C00212283F84120FFF735F87861FB68FA883D
:1017AC009A84FB68FA88DA84FB689B68B3F5805FDF
:1017BC0008D1FB681B69002B04D10023FB61BB68BB
:1017CC00BB6103E0BB68FB610023BB612EE03B689F
:1017DC0000937B6900228021F86800F030FB0346FF
:1017EC00002B05D0FB68202283F8412003233AE02C
:1017FC00FB69002B0BD1BB691B881A46FB681B6865
:10180C00C2F308025A60BB690233BB6107E0FB6993
:10181C001A78FB681B685A60FB690133FB61FB6833
:10182C00DB8C9BB2013B9AB2FB68DA84FB68DB8CE5
:10183C009BB2002BCBD13B6800937B6900224021EB
:10184C00F86800F0FCFA0346002B05D0FB68202258
:10185C0083F84120032306E0FB68202283F8412013
:10186C00002300E0022318462037BD4680BD80B51A
:10187C0084B000AFF860B9601346FB80FB6893F846
:10188C004230DBB2202B12D1BB68002B02D0FB887C
:10189C00002B01D101230BE0FB6800221A63FB88AB
:1018AC001A46B968F86800F023FB034600E00223EF
:1018BC0018461037BD4680BD80B5BAB000AF786011
:1018CC007B681B681B68C7F8E4307B681B68DB68A7
:1018DC00C7F8E0307B681B685B69C7F8DC30002315
:1018EC00C7F8D8300023C7F8D430D7F8E43003F069
:1018FC000F03C7F8D830D7F8D830002B0FD1D7F852
:10190C00E43003F02003002B09D0D7F8E03003F0CB
:10191C002003002B03D0786800F0FDFB6FE2D7F8B2
:10192C00D830002B00F0DC80D7F8DC3003F001035A
:10193C00002B06D1D7F8E03003F49073002B00F0A5
:10194C00CF80D7F8E43003F00103002B0BD0D7F88D
:10195C00E03003F48073002B05D07B685B6C43F0A4
:10196C0001027B685A64D7F8E43003F00403002BBF
:10197C000BD0D7F8DC3003F00103002B05D07B68CB
:10198C005B6C43F002027B685A64D7F8E43003F0D6
:10199C000203002B0BD0D7F8DC3003F00103002B33
:1019AC0005D07B685B6C43F004027B685A64D7F803
:1019BC00E43003F00803002B11D0D7F8E03003F02B
:1019CC002003002B05D1D7F8DC3003F00103002BEA
:1019DC0005D07B685B6C43F008027B685A647B68BB
:1019EC005B6C002B00F00682D7F8E43003F0200388
:1019FC00002B08D0D7F8E03003F02003002B02D0E6
:101A0C00786800F088FB7B681B685B6903F0400317
:101A1C00C3F38013DBB2C7F8D4307B685B6C03F084
:101A2C000803002B03D1D7F8D430002B4FD07868A3
:101A3C0000F097FA7B681B685B6903F04003002B8E
:101A4C0041D07B681B681433C7F89C30D7F89C30A6
:101A5C0053E8003FC7F89830D7F8983023F040038C
:101A6C00C7F8D0307B681B681433D7F8D020C7F880
:101A7C00A820C7F8A430D7F8A410D7F8A82041E8BC
:101A8C000023C7F8A030D7F8A030002BD9D17B6841
:101A9C00DB6B002B13D07B68DB6B894A5A637B684A
:101AAC00DB6B1846FFF712F80346002B16D07B6849
:101ABC00DB6B5B6B7A68D26B104698470EE07868EC
:101ACC0000F0A9F90AE0786800F0A5F906E078685A
:101ADC0000F0A1F97B6800225A648BE100BF89E118
:101AEC007B681B6B012B40F06581D7F8E43003F069
:101AFC001003002B00F05E81D7F8E03003F01003E8
:101B0C00002B00F057810023BB607B681B681B68AF
:101B1C00BB607B681B685B68BB60BB687B681B68D1
:101B2C005B6903F04003002B00F0CC807B68DB6B1F
:101B3C001B685B68A7F8BE30B7F8BE30002B00F00E
:101B4C00A8807B689B8DB7F8BE209A4280F0A1805C
:101B5C007B68B7F8BE20DA857B68DB6B9B69202B32
:101B6C0000F088807B681B680C33C7F88830D7F886
:101B7C00883053E8003FC7F88430D7F8843023F41A
:101B8C008073C7F8B8307B681B680C33D7F8B82063
:101B9C00C7F89420C7F89030D7F89010D7F8942055
:101BAC0041E80023C7F88C30D7F88C30002BD9D102
:101BBC007B681B6814337B677B6F53E8003F3B6784
:101BCC003B6F23F00103C7F8B4307B681B681433F8
:101BDC00D7F8B420C7F88020FB67F96FD7F88020BE
:101BEC0041E80023BB67BB6F002BE1D17B681B680E
:101BFC0014333B663B6E53E8003FFB65FB6D23F0F3
:101C0C004003C7F8B0307B681B681433D7F8B0209A
:101C1C00FA66BB66B96EFA6E41E800237B667B6E92
:101C2C00002BE3D17B68202283F842207B680022C2
:101C3C001A637B681B680C33FB64FB6C53E8003F36
:101C4C00BB64BB6C23F01003C7F8AC307B681B681B
:101C5C000C33D7F8AC20BA657B65796DBA6D41E869
:101C6C0000233B653B6D002BE3D17B68DB6B184697
:101C7C00FEF7F1FE7B6802225A637B689A8D7B68C3
:101C8C00DB8D9BB2D31A9BB21946786800F0CCF866
:101C9C00B2E07B689B8DB7F8BE209A4240F0AC80D6
:101CAC007B68DB6B9B69202B40F0A6807B68022253
:101CBC005A637B689B8D1946786800F0B5F89BE0F9
:101CCC00332000087B689A8D7B68DB8D9BB2D31A1E
:101CDC00A7F8CE307B68DB8D9BB2002B00F08E809A
:101CEC00B7F8CE30002B00F089807B681B680C3372
:101CFC00BB63BB6B53E8003F7B637B6B23F490733C
:101D0C00C7F8C8307B681B680C33D7F8C8207A64D6
:101D1C003B64396C7A6C41E80023FB63FB6B002B52
:101D2C00E3D17B681B6814337B627B6A53E8003F0A
:101D3C003B623B6A23F00103C7F8C4307B681B6825
:101D4C001433D7F8C4203A63FB62F96A3A6B41E862
:101D5C000023BB62BB6A002BE3D17B68202283F893
:101D6C0042207B6800221A637B681B680C333B6142
:101D7C003B6953E8003FFB60FB6823F01003C7F896
:101D8C00C0307B681B680C33D7F8C020FA61BB618C
:101D9C00B969FA6941E800237B617B69002BE3D1C7
:101DAC007B6802225A63B7F8CE301946786800F087
:101DBC003BF823E0D7F8E43003F08003002B09D084
:101DCC00D7F8E03003F08003002B03D0786800F0E4
:101DDC003BF914E0D7F8E43003F04003002B0ED0AD
:101DEC00D7F8E03003F04003002B08D0786800F0FF
:101DFC007AF904E000BF02E000BF00E000BFE83762
:101E0C00BD4680BD80B483B000AF786000BF0C3796
:101E1C00BD4680BC704780B483B000AF786000BF13
:101E2C000C37BD4680BC704780B483B000AF78607F
:101E3C000B467B8000BF0C37BD4680BC704780B51D
:101E4C0086B000AFF860B9603B601346FB713BE0B5
:101E5C003B6AB3F1FF3F37D0FEF7D4FC02463B6838
:101E6C00D31A3A6A9A4202D33B6A002B01D103235C
:101E7C003AE0FB681B68DB6803F00403002B23D0FB
:101E8C00BB68802B20D0BB68402B1DD0FB681B6827
:101E9C001B6803F00803082B16D100237B61FB6839
:101EAC001B681B687B61FB681B685B687B617B69DB
:101EBC00F86800F056F8FB6808225A64FB680022A8
:101ECC0083F8402001230FE0FB681B681A68BB688D
:101EDC001340BA689A420CBF01230023DBB21A46A6
:101EEC00FB799A42B4D0002318461837BD4680BD02
:101EFC0080B485B000AFF860B9601346FB80FB6816
:101F0C00BA689A62FB68FA889A85FB68FA88DA855F
:101F1C00FB6800225A64FB68222283F84220FB688B
:101F2C001B69002B07D0FB681B68DA68FB681B6811
:101F3C0042F48072DA60FB681B685A69FB681B68A4
:101F4C0042F001025A61FB681B68DA68FB681B6887
:101F5C0042F02002DA60002318461437BD4680BCDC
:101F6C00704780B495B000AF78607B681B680C3309
:101F7C007B637B6B53E8003F3B633B6B23F49073B9
:101F8C00FB647B681B680C33FA6C3A64FB63F96B7B
:101F9C003A6C41E80023BB63BB6B002BE5D17B683B
:101FAC001B6814333B623B6A53E8003FFB61FB69DF
:101FBC0023F00103BB647B681B681433BA6CFA62B0
:101FCC00BB62B96AFA6A41E800237B627B6A002B28
:101FDC00E5D17B681B6B012B19D17B681B680C331B
:101FEC00FB60FB6853E8003FBB60BB6823F0100349
:101FFC007B647B681B680C337A6CBA617B61796992
:10200C00BA6941E800233B613B69002BE5D17B6851
:10201C00202283F842207B6800221A6300BF5437C9
:10202C00BD4680BC704780B584B000AF78607B68DB
:10203C005B6AFB60FB680022DA85F868FFF7EBFE51
:10204C0000BF1037BD4680BD80B485B000AF78604E
:10205C007B6893F84130DBB2212B3ED17B689B68C7
:10206C00B3F5805F14D17B681B69002B10D17B68A2
:10207C001B6AFB60FB681B881A467B681B68C2F3F3
:10208C0008025A607B681B6A9A1C7B681A6208E01B
:10209C007B681B6A591C7A6811621A787B681B680A
:1020AC005A607B68DB8C9BB2013B9BB27A68194609
:1020BC00D184002B0FD17B681B68DA687B681B68A6
:1020CC0022F08002DA607B681B68DA687B681B6828
:1020DC0042F04002DA60002300E002231846143775
:1020EC00BD4680BC704780B582B000AF78607B681D
:1020FC001B68DA687B681B6822F04002DA607B6838
:10210C00202283F841207868FFF77CFE00231846D4
:10211C000837BD4680BD80B58CB000AF7860002319
:10212C00FB620023BB627B6893F84230DBB2222B4C
:10213C0040F0AA807B689B68B3F5805F15D17B6803
:10214C001B69002B11D17B689B6ABB627B681B6887
:10215C005B689BB2C3F308039AB2BB6A1A807B68B4
:10216C009B6A9A1C7B689A6224E07B689B6AFB6280
:10217C007B689B68B3F5805F07D07B689B68002BFE
:10218C000AD17B681B69002B06D17B681B685B68D6
:10219C00DAB2FB6A1A7008E07B681B685B68DBB21A
:1021AC0003F07F03DAB2FB6A1A707B689B6A5A1CD5
:1021BC007B689A627B68DB8D9BB2013B9BB27A6831
:1021CC001946D185002B5DD17B681B68DA687B686A
:1021DC001B6822F02002DA607B681B68DA687B6877
:1021EC001B6822F48072DA607B681B685A697B6812
:1021FC001B6822F001025A617B68202283F842207E
:10220C007B6800225A637B681B6B012B35D17B6882
:10221C0000221A637B681B680C337B617B6953E873
:10222C00003F3B613B6923F010037B627B681B68BA
:10223C000C337A6A3A62FB61F9693A6A41E8002325
:10224C00BB61BB69002BE5D17B681B681B6803F085
:10225C001003102B0AD10023FB607B681B681B68E2
:10226C00FB607B681B685B68FB60FB687B689B8D15
:10227C0019467868FFF7D8FD02E07868FEF7D4F8C5
:10228C00002302E0002300E0022318463037BD464D
:10229C0080BD000080B584B000AF78607B681B689F
:1022AC001B6923F440517B68DA687B681B680A431E
:1022BC001A617B689A687B681B691A437B685B6947
:1022CC001343BB607B681B68DB6823F4B05323F0BB
:1022DC000C037A681268B9680B43D3607B681B687F
:1022EC005B6923F440717B689A697B681B680A43BD
:1022FC005A617B681B682C4A934203D1FFF7AAF9F9
:10230C00F86002E0FFF792F9F860FA6813469B0058
:10231C0013449A001A447B685B689B00B2FBF3F38E
:10232C00224AA2FB03235B091901FA6813469B009E
:10233C0013449A001A447B685B689B00B2FBF3F26F
:10234C001A4BA3FB02035B09642000FB03F3D31AB3
:10235C001B013233154AA2FB03235B0903F0F00384
:10236C001944FA6813469B0013449A001A447B687C
:10237C005B689B00B2FBF3F20C4BA3FB02035B0903
:10238C00642000FB03F3D31A1B013233074AA2FB70
:10239C0003235B0903F00F027B681B680A449A60F5
:1023AC0000BF1037BD4680BD003801401F85EB5182
:1023BC0080B582B000AF78607B68002B01D101231F
:1023CC0041E07B6893F83D30DBB2002B06D17B6893
:1023DC00002283F83C207868FDF7FCFE7B68022223
:1023EC0083F83D207B681A687B68043319461046D5
:1023FC0000F086F97B68012283F846207B68012275
:10240C0083F83E207B68012283F83F207B68012201
:10241C0083F840207B68012283F841207B680122ED
:10242C0083F842207B68012283F843207B680122D9
:10243C0083F844207B68012283F845207B680122C5
:10244C0083F83D20002318460837BD4680BD0000A8
:10245C0080B584B000AF786039603B68002B09D13F
:10246C007B6893F83E30DBB2012B14BF01230023B1
:10247C00DBB222E03B68042B09D17B6893F83F3038
:10248C00DBB2012B14BF01230023DBB215E03B6848
:10249C00082B09D17B6893F84030DBB2012B14BFB9
:1024AC0001230023DBB208E07B6893F84130DBB2F8
:1024BC00012B14BF01230023DBB2002B01D001231D
:1024CC005EE03B68002B04D17B68022283F83E203F
:1024DC0013E03B68042B04D17B68022283F83F2075
:1024EC000BE03B68082B04D17B68022283F8402068
:1024FC0003E07B68022283F841207B681B68012281
:10250C003968184600F0F2FA7B681B681E4A934241
:10251C0007D17B681B685A6C7B681B6842F40042CD
:10252C005A647B681B68184A93420ED07B681B6800
:10253C00B3F1804F09D07B681B68144A934204D0D6
:10254C007B681B68124A934211D17B681B689B689D
:10255C0003F00703FB60FB68062B10D07B681B683D
:10256C001A687B681B6842F001021A6007E07B68FE
:10257C001B681A687B681B6842F001021A60002312
:10258C0018461037BD4680BD002C014000040040A9
:10259C000008004080B586B000AFF860B9607A6082
:1025AC000023FB75FB6893F83C30012B01D102230F
:1025BC00A2E0FB68012283F83C207B680C2B72D0D4
:1025CC007B680C2B00F290807B68082B4BD07B68CF
:1025DC00082B00F289807B68002B03D07B68042BCE
:1025EC0020D081E0FB681B68B968184600F0F0F851
:1025FC00FB681B689A69FB681B6842F008029A61C9
:10260C00FB681B689A69FB681B6822F004029A61DC
:10261C00FB681B689969BB681A69FB681B680A43ED
:10262C009A6164E0FB681B68B968184600F038F9D9
:10263C00FB681B689A69FB681B6842F400629A612C
:10264C00FB681B689A69FB681B6822F480629A61BC
:10265C00FB681B689969BB681B691A02FB681B68DD
:10266C000A439A6143E0FB681B68B968184600F09E
:10267C0083F9FB681B68DA69FB681B6842F0080287
:10268C00DA61FB681B68DA69FB681B6822F00402DC
:10269C00DA61FB681B68D969BB681A69FB681B683F
:1026AC000A43DA6123E0FB681B68B968184600F03E
:1026BC00CFF9FB681B68DA69FB681B6842F400629F
:1026CC00DA61FB681B68DA69FB681B6822F48062BC
:1026DC00DA61FB681B68D969BB681B691A02FB6865
:1026EC001B680A43DA6102E00123FB7500BFFB683B
:1026FC00002283F83C20FB7D18461837BD4680BD70
:10270C0080B485B000AF786039607B681B68FB6073
:10271C007B682C4A93420BD07B68B3F1804F07D077
:10272C007B68294A934203D07B68284A934208D19C
:10273C00FB6823F07003FB603B685B68FA6813432B
:10274C00FB607B681F4A93420BD07B68B3F1804FD0
:10275C0007D07B681C4A934203D07B681B4A934288
:10276C0008D1FB6823F44073FB603B68DB68FA68B4
:10277C001343FB60FB6823F080023B685B691343E7
:10278C00FB603B689A687B68DA623B681A687B6816
:10279C009A627B680B4A934203D13B681A697B6847
:1027AC001A637B681B6843F004027B681A607B68C1
:1027BC0001225A617B68FA681A6000BF1437BD4663
:1027CC0080BC7047002C0140000400400008004011
:1027DC0080B487B000AF786039607B681B6A7B611E
:1027EC007B681B6A23F001027B681A627B685B685A
:1027FC003B617B689B69FB60FB6823F07003FB60AB
:10280C00FB6823F00303FB603B681B68FA68134307
:10281C00FB607B6923F002037B613B689B687A69F0
:10282C0013437B617B681D4A93420ED17B681B6A04
:10283C0023F004027B681A627B6923F008037B6136
:10284C003B68DB687A6913437B617B68134A93426C
:10285C0011D13B6923F480733B613B6923F4007312
:10286C003B613B685B693A6913433B613B689B691D
:10287C003A6913433B617B683A695A607B68FA6832
:10288C009A613B685A687B685A637B687A691A62FA
:10289C0000BF1C37BD4680BC704700BF002C0140F8
:1028AC0080B487B000AF786039607B681B6A7B614D
:1028BC007B681B6A23F010027B681A627B685B687A
:1028CC003B617B689B69FB60FB6823F4E043FB6026
:1028DC00FB6823F44073FB603B681B681B02FA68BF
:1028EC001343FB607B6923F020037B613B689B688F
:1028FC001B017A6913437B617B681E4A93420FD19B
:10290C007B681B6A23F040027B681A627B6923F0A8
:10291C0080037B613B68DB681B017A6913437B6135
:10292C007B68144A934213D13B6923F480633B6167
:10293C003B6923F400633B613B685B699B003A692C
:10294C0013433B613B689B699B003A6913433B61B2
:10295C007B683A695A607B68FA689A613B685A6886
:10296C007B689A637B687A691A6200BF1C37BD4624
:10297C0080BC7047002C014080B487B000AF7860F9
:10298C0039607B681B6A7B617B681B6A23F48072ED
:10299C007B681A627B685B683B617B68DB69FB6008
:1029AC00FB6823F07003FB60FB6823F00303FB6000
:1029BC003B681B68FA681343FB607B6923F4007364
:1029CC007B613B689B681B027A6913437B617B6864
:1029DC001E4A93420FD17B681B6A23F480627B688A
:1029EC001A627B6923F400637B613B68DB681B0222
:1029FC007A6913437B617B68144A934213D13B6918
:102A0C0023F480533B613B6923F400533B613B68E7
:102A1C005B691B013A6913433B613B689B691B0172
:102A2C003A6913433B617B683A695A607B68FA6880
:102A3C00DA613B685A687B68DA637B687A691A6288
:102A4C0000BF1C37BD4680BC704700BF002C014046
:102A5C0080B487B000AF786039607B681B6A3B61DB
:102A6C007B681B6A23F480527B681A627B685B6804
:102A7C007B617B68DB69FB60FB6823F4E043FB60F4
:102A8C00FB6823F44073FB603B681B681B02FA680D
:102A9C001343FB603B6923F400533B613B689B6829
:102AAC001B033A6913433B617B680F4A934209D17C
:102ABC007B6923F480437B613B685B699B017A698A
:102ACC0013437B617B687A695A607B68FA68DA61C8
:102ADC003B685A687B681A647B683A691A6200BF63
:102AEC001C37BD4680BC7047002C014080B487B0B9
:102AFC0000AFF860B9607A60BB6803F01F03012275
:102B0C0002FA03F37B61FB681A6A7B69DB431A40A8
:102B1C00FB681A62FB681A6ABB6803F01F037968CA
:102B2C0001FA03F31A43FB681A6200BF1C37BD4657
:102B3C0080BC7047FDF707FE0B480C490C4A00237C
:102B4C0002E0D458C4500433C4188C42F9D3094A57
:102B5C00094C002301E013600432A242FBD300F0C5
:102B6C00E7F8FDF7D9FB704700000020600000205B
:102B7C002C3800086000002084020020FEE70A22A6
:102B8C00002100F07BB80000242B2DE9F04788468B
:102B9C0001D8012B06D100F0C5F8162303600020E4
:102BAC00BDE8F0870D46344E294615F8014B375DCC
:102BBC0017F00807F8D12D2C10D101272C788D1C7B
:102BCC0033F0100115D1302C0DD1297801F0DF0133
:102BDC00582908D16C78023510230AE02B2C04BF3D
:102BEC002C788D1CECE7002BF6D1302C14BF0A236B
:102BFC000823002107F1004E0EF1FF3EBEFBF3F956
:102C0C000E4603FB19EAA4F1300CBCF1090F10D8E5
:102C1C006446A3421EDDB1F1FF3F07D0B14516D388
:102C2C0001D1A24513DB012106FB034615F8014B2C
:102C3C00E9E7A4F1410CBCF1190F01D8373CE8E7E6
:102C4C00A4F1610CBCF1190F04D8573CE1E74FF02B
:102C5C00FF31EBE74B1C05D122237646036032B9DA
:102C6C0030469DE707B17642002AF9D009B105F14B
:102C7C00FF38C2F80080F3E7E736000813460A462F
:102C8C00014602480068FFF77FBF00BF100000201C
:102C9C000EB46FF0004110B500249DB01FAB029034
:102CAC000690079104910948094953F8042B0591A2
:102CBC00006802A901931B9400F0B4F9029B1C70EC
:102CCC001DB0BDE8104003B0704700BF10000020DD
:102CDC000802FFFF03460244934200D1704703F8F9
:102CEC00011BF9E70346C9B21A78184622B18A4289
:102CFC0003F10103F8D17047914218BF1046704799
:102D0C0010B56AB101398418027811F8013F9A4262
:102D1C0004D10130A04201D0002AF5D1D01A10BD47
:102D2C001046FCE7014B1868704700BF10000020EC
:102D3C0070B500260C4C0D4B1D1BB6EBA50F09D125
:102D4C00002600F091FC0A4C0A4B1D1BB6EBA50F9C
:102D5C0005D170BD54F8043B98470136EDE754F8A3
:102D6C00043B98470136F1E7243800082438000862
:102D7C0024380008283800087047704737B50029F8
:102D8C0042D051F8043C0C1F002BB8BFE418019042
:102D9C0000F0DCF81D4A0198136833B963601460C5
:102DAC0003B0BDE8304000F0D7B8A34208D925687D
:102DBC0061198B4201BF19685B6849192160EDE705
:102DCC001A465B680BB1A342FAD911685518A54293
:102DDC000BD1246821445418A3421160E0D11C6823
:102DEC005B680C4414605360DAE702D90C2303606F
:102DFC00D6E7256861198B4201BF19685B684919D0
:102E0C00216063605460CBE703B030BD7C020020CE
:102E1C0070B50F4C0E462168054611B900F0B4FB95
:102E2C0020603146284600F0AFFB431C03D14FF025
:102E3C00FF34204670BDC41C24F00304A042F8D01B
:102E4C00211A284600F0A0FB0130F2D1EFE700BFB9
:102E5C00780200202DE9F843CD1C25F00305083538
:102E6C000C2D38BF0C25002D064601DBA94204D9D8
:102E7C000C2333600020BDE8F883334F00F066F874
:102E8C003B681C463CBB29463046FFF7C1FF431C40
:102E9C00044656D13C68A046B8F1000F40D1002C36
:102EAC0049D023684146304604EB030900F06CFB23
:102EBC00814540D1216830466D1A2946FFF7A8FF9D
:102ECC00013038D023682B4423603B685A685ABBC6
:102EDC00C7F800800EE02268521B1ED40B2A16D9AC
:102EEC006119A342256018BF5960636808BF396037
:102EFC0062514B60304600F02FF804F10B00231D9B
:102F0C0020F00700C21A1CBF1B1AA350B3E762685B
:102F1C00A3420CBF3A605A60ECE723466468B1E701
:102F2C004446D8F80480B7E71A465B68A342FBD145
:102F3C0000235360DEE70C233046336000F00CF8BE
:102F4C0098E70560D6E700BF7C0200200148FFF738
:102F5C0013BF00BF740200200148FFF70EBF00BF73
:102F6C00740200202DE9F0471F468E688246BE424F
:102F7C000C469046334653D8B1F90C0010F4906FC0
:102F8C002BD065692368096905EB4505A3EB01099D
:102F9C0005EBD5757B1C6D104B44AB422A4684BFA8
:102FAC001D462A46430527D511465046FFF752FFCA
:102FBC00064658B34A46216900F004FBA38923F462
:102FCC00906343F08003A38126614E4426603B4608
:102FDC003E466561A5EB0905A5601F463A4641468C
:102FEC00206800F0B7FA0020A3689B1BA36023683D
:102FFC003B442360BDE8F087504600F0F1FA0646EA
:10300C000028E1D150462169FFF7B8FE0C23CAF81D
:10301C000030A3894FF0FF3043F04003A381E9E770
:10302C003E46DBE72DE9F0471F468B8906461B061B
:10303C000D4614469CB010D50B6973B94021FFF7AF
:10304C0009FF2860286130B90C2333604FF0FF3042
:10305C001CB0BDE8F08740236B610023099320234B
:10306C008DF8293030234FF001080397644F8DF809
:10307C002A3023461A7899461AB1252A03F10103FE
:10308C00F8D1B9EB040A0BD05346224629463046F8
:10309C00FFF768FF013000F0A380099A52440992AF
:1030AC0099F80030002B00F09B8000224FF0FF338A
:1030BC00CDE9053209F10109049207928DF85320EC
:1030CC001A924C46052214F8011B4D4800F06CFA7C
:1030DC00049AD0B9D00644BF20238DF85330110781
:1030EC0044BF2B238DF8533099F800302A2B13D082
:1030FC004B4600204FF00A0C07991A781C46303AC0
:10310C00092A4AD9A8B1079113E0C01B08FA00F0AC
:10311C001043A1460490D4E7039B191D1B6803912F
:10312C00002BBBBF5B4242F0020207930793B8BF70
:10313C00049223782E2B0AD163782A2B32D1039B4D
:10314C0002341A1D1B68039243EAE3730593DFF8FC
:10315C00B49003224846217800F026FA38B1402278
:10316C00049BA0EB090082401343013404932178A3
:10317C00062225488DF8281000F016FA002835D0C4
:10318C00224818BB039B073323F007030833039330
:10319C00099B0134034409936BE701200CFB0121CB
:1031AC000133AAE700234FF00A0C18460593611C63
:1031BC000A780C46303A092A03D9002BC7D005905F
:1031CC00C5E701230CFB00200131F1E703AB0093B1
:1031DC002A4630460E4B04A9AFF30080421CD7D1CF
:1031EC00AB895B063FF532AF099831E703AB00932F
:1031FC002A463046064B04A900F082F8EEE700BFE1
:10320C00E7370008ED370008F13700080000000030
:10321C00712F00082DE9F047914698468A680B6992
:10322C0007469342B8BF1346C9F8003091F84320C3
:10323C000C46089E12B10133C9F800302368990678
:10324C0042BFD9F800300233C9F80030256815F0B8
:10325C00060507D104F1190AE368D9F800209B1A76
:10326C00AB4229DC94F843302268003B18BF0123A1
:10327C0092062ED44146384604F14302B047013041
:10328C0021D02368A16803F00603042B12BF00258C
:10329C00E568D9F80030226904BFED1A25EAE57516
:1032AC008B1A2B449142C8BF1D464FF000091A34AB
:1032BC004D451AD1002008E00123524641463846BC
:1032CC00B047013003D14FF0FF30BDE8F087013536
:1032DC00C2E73020E11881F843005A1C94F84510DD
:1032EC002244023382F84310C4E7012322464146AC
:1032FC003846B0470130E6D009F10109D8E70000A3
:10330C002DE9F04398460B7E85B0782B1746064680
:10331C000C460C9A09D8622B01F1430108D8002BFA
:10332C0000F0DC80582B00F0BD8004F1420539E040
:10333C00A3F163001528F8D801A555F820F000BFBB
:10334C00A5330008B93300083733000837330008B9
:10335C003733000837330008B93300083733000817
:10336C00373300083733000837330008C9340008F6
:10337C00E53300087734000837330008373300088A
:10338C00F134000837330008E53300083733000800
:10339C00373300087F340008136804F14205191D07
:1033AC001B68116084F842300123A8E0136825687B
:1033BC00181D1060280601D51B6803E06A06FBD5B2
:1033CC00B3F90030002B03DA2D225B4284F8432042
:1033DC000A22DFF878C113E02568106815F0800F19
:1033EC0050F8043B02D16D0648BF9BB21060227EA0
:1033FC00DFF858C16F2A5DD10822002084F8430001
:10340C006568002DA56005DB20681D4320F00400D5
:10341C00206051D00D46B3FBF2F002FB103E1CF8BD
:10342C000EE09A4205F801ED0346F4D9082A0BD1B7
:10343C002368DA0708D5236962689A42DEBF302315
:10344C0005F8013C05F1FF35491B21613B4621463E
:10345C003046CDF8008003AAFFF7DCFE013053D1D3
:10346C004FF0FF3005B0BDE8F083236843F0200334
:10347C0023607823DFF8D8C084F8453020681568BD
:10348C0010F0800F55F8043B03D110F0400F18BF1B
:10349C009BB21560C50744BF40F02000206023B1EB
:1034AC001022AAE7DFF8A4C0E6E7226822F0200287
:1034BC002260F5E70A22A0E70D46B7E71368D4F8B7
:1034CC0000C01D1D60691CF0800F15601B6801D0C9
:1034DC00186003E01CF0400FFAD0188000230D4652
:1034EC002361B3E71368191D11601D68002128467C
:1034FC00626800F059F808B1401B60606368236192
:10350C00002384F84330A1E72A4639463046236924
:10351C00C0470130A4D023689B0714D4E068039BF8
:10352C009842B8BF18469DE701233946304604F14E
:10353C001902C047013093D00135E36803995B1A37
:10354C00AB42F1DCEAE70025F7E700BFF8370008EB
:10355C0009380008884210B501EB020402D98442F4
:10356C00234607D8431EA14207D011F8012B03F8BC
:10357C00012FF8E70244824200D110BD13F8011D5F
:10358C0002F8011DF7E7000038B50023054C05468D
:10359C000846236000F05AF8431C02D1236803B19B
:1035AC002B6038BD70020020034610B5C9B202442E
:1035BC00934201D1002004E01846047801338C4278
:1035CC00F6D110BD0A44914200F1FF3300D170478F
:1035DC0010B511F8014B914203F8014FF9D110BD10
:1035EC002DE9F041074615460C4621B91146BDE8B8
:1035FC00F041FFF72FBC2AB9FFF7C0FB2C46204641
:10360C00BDE8F08100F01AF88542064602D8B5EB09
:10361C00500FF4D829463846FFF71CFC804608B9F1
:10362C004446ECE7B5422A46214628BF3246FFF70E
:10363C00C9FF21463846FFF7A1FBF1E751F8043CDE
:10364C00181F002BBCBF0B58C0187047044A054903
:10365C001368002B08BF0B461844106018467047BF
:10366C008002002088020020F8B500BFF8BC08BC1E
:10367C009E467047F8B500BFF8BC08BC9E46704724
:10368C004F4E00004F46460050574D3A0000000088
:10369C0053746174757300005374617475733A20BC
:1036AC0025732C2050574D3D256425250D0A00000F
:1036BC0000000000000000000102030406070809D6
:1036CC0000000000010203040203040506070809B8
:1036DC000A0B0C0D0E0F10100102002020202020D0
:1036EC0020202020282828282820202020202020A6
:1036FC002020202020202020202020881010101096
:10370C0010101010101010101010100404040404E9
:10371C000404040404101010101010104141414115
:10372C0041410101010101010101010101010101FD
:10373C00010101010101101010101010424242420F
:10374C0042420202020202020202020202020202CD
:10375C0002020202020210101010200000000000F1
:10376C00000000000000000000000000000000004D
:10377C00000000000000000000000000000000003D
:10378C00000000000000000000000000000000002D
:10379C00000000000000000000000000000000001D
:1037AC00000000000000000000000000000000000D
:1037BC0000000000000000000000000000000000FD
:1037CC0000000000000000000000000000000000ED
:1037DC000000000000000000000000232D302B2012
:1037EC0000686C4C006566674546470030313233E3
:1037FC00343536373839414243444546003031324E
:10380C0033343536373839616263646566000000DD
:08381C00F0C8FF7F010000006D
:0438240099010008FE
:043828007101000822
:10382C003200000000127A001000000001000000BD
:10383C00140000200000000038010020A00100202E
:10384C000802002000000000000000000000000042
:10385C00000000000000000000000000000000005C
:10386C00000000000000000000000000000000004C
:10387C00000000000000000000000000000000003C
:0400000508002B4183
:00000001FF
