:020000040800F2
:1000000000500020AD180008F5180008F518000889
:10001000F5180008F5180008F518000800000000A1
:10002000000000000000000000000000F5180008BB
:10003000F518000800000000F5180008F518000881
:10004000F5180008F5180008F5180008F51800085C
:10005000F5180008F5180008F5180008F51800084C
:10006000F5180008F5180008F5180008F51800083C
:10007000F5180008F5180008F5180008F51800082C
:10008000F5180008F5180008F5180008F51800081C
:10009000F5180008F5180008F5180008F51800080C
:1000A000F5180008F5180008F5180008F5180008FC
:1000B000F5180008F5180008F5180008F5180008EC
:1000C000F5180008F5180008F5180008F5180008DC
:1000D000F5180008F5180008F5180008F5180008CC
:1000E000F5180008F5180008F518000800000000D1
:1000F0000000000000000000000000000000000000
:0C01000000000000000000005FF808F1A3
:10010C000348044B834202D0034B03B1184770479A
:10011C000C0000200C000020000000000548064BDD
:10012C001B1AD90F01EBA301491002D0034B03B1E9
:10013C00184770470C0000200C0000200000000045
:10014C0010B5064C237843B9FFF7DAFF044B13B113
:10015C000448AFF300800123237010BD0C00002075
:10016C00000000005019000808B5054B1BB10549EB
:10017C000548AFF30080BDE80840FFF7CFBF00BFD4
:10018C0000000000100000205019000880B500AFDE
:10019C0000F038F900F02AF800F06EF8002112484F
:1001AC0001F00CF80421104801F008F808210E4861
:1001BC0001F004F80C210C4801F000F80A4B1B6804
:1001CC0064225A63084B1B684FF496729A63064B71
:1001DC001B684FF4FA72DA63034B1B684FF42F72EF
:1001EC001A6400BFFDE700BF2800002080B590B066
:1001FC0000AF07F1180328220021184601F075FB07
:10020C003B1D00221A605A609A60DA601A61012361
:10021C00BB614FF48033FB6100233B620123BB6263
:10022C0002237B634FF48033BB634FF4E013FB6317
:10023C0007F11803184600F093FB0346002B01D07E
:10024C0000F0D4F80F237B600223BB600023FB601B
:10025C004FF480633B6100237B613B1D02211846F8
:10026C0000F000FE0346002B01D000F0BFF800BFE9
:10027C004037BD4680BD000080B588B000AF3B1D47
:10028C0000221A605A609A60DA601A615A619A61A7
:10029C002F4B4FF080421A602D4B47225A602C4B4B
:1002AC0000229A602A4B40F2E732DA60284B002297
:1002BC001A61274B00229A61254800F02FFF034654
:1002CC00002B01D000F092F860237B606423BB60AC
:1002DC000023FB6000237B613B1D002219461C4858
:1002EC0001F00EF80346002B01D000F07FF84FF41C
:1002FC009673BB603B1D04221946154801F000F8AB
:10030C000346002B01D000F071F84FF4FA73BB6078
:10031C003B1D082219460E4800F0F2FF0346002B45
:10032C0001D000F063F84FF42F73BB603B1D0C221F
:10033C001946074800F0E4FF0346002B01D000F0FB
:10034C0055F8034800F022F800BF2037BD4680BDA9
:10035C002800002080B485B000AF78607B681B68F3
:10036C00B3F1804F0BD1084BDB69074A43F0010313
:10037C00D361054BDB6903F00103FB60FB6800BF35
:10038C001437BD4680BC70470010024080B588B061
:10039C0000AF786007F1100300221A605A609A606F
:1003AC00DA607B681B68B3F1804F17D10D4B9B69EA
:1003BC000C4A43F0040393610A4B9B6903F004035A
:1003CC00FB60FB680F233B6102237B610323FB6112
:1003DC0007F110031946044800F054F900BF203708
:1003EC00BD4680BD001002400008014080B400AF43
:1003FC0072B600BF00BFFDE780B400AF00BFBD46C2
:10040C0080BC704780B500AF084B1B68074A43F0AF
:10041C0010031360032000F001F90F2000F00EF818
:10042C0000F006F80023184680BD00BF00200240F3
:10043C0080B400AF00BFBD4680BC704780B582B0B1
:10044C0000AF7860124B1A68124B1B7819464FF4A8
:10045C007A73B3FBF1F3B2FBF3F3184600F005F932
:10046C000346002B01D001230EE07B680F2B0AD82A
:10047C00002279684FF0FF3000F0DBF8064A7B6809
:10048C001360002300E0012318460837BD4680BDE9
:10049C0000000020080000200400002080B400AF01
:1004AC00024B1B681846BD4680BC7047700000208C
:1004BC0080B485B000AF78607B6803F00703FB6005
:1004CC000C4BDB68BB60BA684FF6FF031340BB6094
:1004DC00FB681A02BB68134343F0BF6343F4003359
:1004EC00BB60044ABB68D36000BF1437BD4680BCF8
:1004FC00704700BF00ED00E080B400AF044BDB6838
:10050C001B0A03F007031846BD4680BC704700BFAA
:10051C0000ED00E080B483B000AF03463960FB719E
:10052C0097F90730002B0ADB3B68DAB20C4997F9D4
:10053C0007301201D2B20B4483F800230AE03B6867
:10054C00DAB20849FB7903F00F03043B1201D2B273
:10055C000B441A7600BF0C37BD4680BC704700BFF9
:10056C0000E100E000ED00E080B489B000AFF8607D
:10057C00B9607A60FB6803F007037B617B69033B1E
:10058C00042B04D87B69C3F10703FB6101E004234E
:10059C00FB617B690433062B03D97B69033BBB618D
:1005AC0001E00023BB614FF0FF32FB6902FA03F359
:1005BC00DA43BB681A40BB699A404FF0FF31BB6904
:1005CC0001FA03F3D9437B680B40134318462437D5
:1005DC00BD4680BC7047000080B582B000AF78602B
:1005EC007B68013BB3F1807F01D301230FE00A4A02
:1005FC007B68013B53600F214FF0FF30FFF78AFF00
:10060C00054B00229A60044B07221A6000231846FF
:10061C000837BD4680BD00BF10E000E080B582B059
:10062C0000AF78607868FFF743FF00BF0837BD461E
:10063C0080BD80B586B000AF0346B9607A60FB73AD
:10064C0000237B61FFF758FF78617A68B968786995
:10065C00FFF78AFF024697F90F3011461846FFF74D
:10066C0059FF00BF1837BD4680BD80B582B000AFC2
:10067C0078607868FFF7B0FF034618460837BD4628
:10068C0080BD000080B48BB000AF7860396000236F
:10069C007B6200233B6253E101227B6A02FA03F383
:1006AC007B613B681B687A6913403B613A697B69E3
:1006BC009A4240F042813B685B688F4A934247D034
:1006CC008D4A93425ED88D4A934241D08B4A9342D5
:1006DC0058D88B4A93423BD0894A934252D8894A84
:1006EC00934235D0874A93424CD8874A93422FD0B5
:1006FC00854A934246D8854A934229D0834A9342ED
:10070C0040D8122B1FD0122B3CD8112B11D0112BEF
:10071C0038D8032B33D0032B34D8022B0ED0022B1A
:10072C0030D8002B14D0012B2CD13B68DB683B62FA
:10073C0029E03B68DB6804333B6224E03B68DB6800
:10074C0008333B621FE03B68DB680C333B621AE00A
:10075C003B689B68002B02D104233B6213E03B688F
:10076C009B68012B05D108233B627B687A691A616F
:10077C0009E008233B627B687A695A6103E0002335
:10078C003B6200E000BF3B69FF2B02D87B68FB613A
:10079C0002E07B680433FB613B69FF2B03D87B6A67
:1007AC009B00BB6103E07B6A083B9B00BB61FB6960
:1007BC001A680F21BB6901FA03F3DB431A40396A4B
:1007CC00BB6901FA03F31A43FB691A603B685B6867
:1007DC0003F08053002B00F0B0804D4B9B694C4ACA
:1007EC0043F0010393614A4B9B6903F00103BB6027
:1007FC00BB68484A7B6A9B08023352F82330FB6083
:10080C007B6A03F003039B000F2202FA03F3DB4322
:10081C00FA681340FB607B683F4A934213D07B68B5
:10082C003E4A93420DD07B683D4A934207D07B6889
:10083C003C4A934201D1032306E0042304E0022343
:10084C0002E0012300E000237A6A02F00302920026
:10085C009340FA681343FB602E497B6A9B08023372
:10086C00FA6841F823203B685B6803F48013002B83
:10087C0006D02D4B9A682C493B6913438B6006E0DC
:10088C00294B9A683B69DB43274913408B603B68D3
:10089C005B6803F40013002B06D0234BDA68224963
:1008AC003B691343CB6006E01F4BDA683B69DB43C3
:1008BC001D491340CB603B685B6803F40033002B8D
:1008CC0006D0194B5A6818493B6913434B6006E034
:1008DC00154B5A683B69DB43134913404B603B682B
:1008EC005B6803F48033002B20D00F4B1A680E4941
:1008FC003B6913430B6020E0000032100000311004
:10090C000000221000002110000012100000111035
:10091C00001002400000014000080140000C0140A2
:10092C000010014000140140000401400B4B1A68F8
:10093C003B69DB43094913400B607B6A01337B62E3
:10094C003B681A687B6A22FA03F3002B7FF4A4AE8F
:10095C0000BF00BF2C37BD4680BC7047000401406F
:10096C0080B586B000AF78607B68002B01D1012385
:10097C0072E27B681B6803F00103002B00F0878098
:10098C00924B5B6803F00C03042B0CD08F4B5B6811
:10099C0003F00C03082B12D18C4B5B6803F48033EF
:1009AC00B3F5803F0BD1894B1B6803F40033002B4C
:1009BC006CD07B685B68002B68D101234CE27B68B0
:1009CC005B68B3F5803F06D1804B1B687F4A43F4CC
:1009DC00803313602EE07B685B68002B0CD17B4B63
:1009EC001B687A4A23F480331360784B1B68774A70
:1009FC0023F4802313601DE07B685B68B3F5A02FA4
:100A0C000CD1724B1B68714A43F4802313606F4BFB
:100A1C001B686E4A43F4803313600BE06B4B1B680E
:100A2C006A4A23F480331360684B1B68674A23F4CB
:100A3C00802313607B685B68002B13D0FFF72EFDBF
:100A4C00386108E0FFF72AFD02463B69D31A642B94
:100A5C0001D9032300E25D4B1B6803F40033002B28
:100A6C00F0D014E0FFF71AFD386108E0FFF716FD2F
:100A7C0002463B69D31A642B01D90323ECE1534B97
:100A8C001B6803F40033002BF0D100E000BF7B683F
:100A9C001B6803F00203002B63D04C4B5B6803F024
:100AAC000C03002B0BD0494B5B6803F00C03082B99
:100ABC001CD1464B5B6803F48033002B16D1434B9F
:100ACC001B6803F00203002B05D07B681B69012B0C
:100ADC0001D00123C0E13D4B1B6823F0F8027B6879
:100AEC005B69DB00394913430B603AE07B681B6997
:100AFC00002B20D0364B01221A60FFF7CFFC386157
:100B0C0008E0FFF7CBFC02463B69D31A022B01D954
:100B1C000323A1E12D4B1B6803F00203002BF0D043
:100B2C002A4B1B6823F0F8027B685B69DB002749C2
:100B3C0013430B6015E0264B00221A60FFF7AEFC46
:100B4C00386108E0FFF7AAFC02463B69D31A022B76
:100B5C0001D9032380E11D4B1B6803F00203002B1A
:100B6C00F0D17B681B6803F00803002B3AD07B683C
:100B7C009B69002B19D0174B01221A60FFF78EFCD2
:100B8C00386108E0FFF78AFC02463B69D31A022B56
:100B9C0001D9032360E10D4B5B6A03F00203002BC8
:100BAC00F0D0012000F09CFA1CE00A4B00221A60E5
:100BBC00FFF774FC38610FE0FFF770FC02463B69ED
:100BCC00D31A022B08D9032346E100BF00100240C0
:100BDC000000424280044242924B5B6A03F00203E3
:100BEC00002BE9D17B681B6803F00403002B00F099
:100BFC00A6800023FB758B4BDB6903F08053002B25
:100C0C000DD1884BDB69874A43F08053D361854B08
:100C1C00DB6903F08053BB60BB680123FB75824B1F
:100C2C001B6803F48073002B18D17F4B1B687E4A22
:100C3C0043F480731360FFF731FC386108E0FFF771
:100C4C002DFC02463B69D31A642B01D9032303E123
:100C5C00754B1B6803F48073002BF0D07B68DB684A
:100C6C00012B06D16F4B1B6A6E4A43F001031362D2
:100C7C002DE07B68DB68002B0CD16A4B1B6A694A40
:100C8C0023F001031362674B1B6A664A23F00403CB
:100C9C0013621CE07B68DB68052B0CD1614B1B6A73
:100CAC00604A43F0040313625E4B1B6A5D4A43F0D7
:100CBC00010313620BE05B4B1B6A5A4A23F00103DE
:100CCC001362584B1B6A574A23F0040313627B6868
:100CDC00DB68002B15D0FFF7E1FB38610AE0FFF76A
:100CEC00DDFB02463B69D31A41F28832934201D9AB
:100CFC000323B1E04B4B1B6A03F00203002BEED035
:100D0C0014E0FFF7CBFB38610AE0FFF7C7FB0246A4
:100D1C003B69D31A41F28832934201D903239BE0F9
:100D2C00404B1B6A03F00203002BEED1FB7D012B21
:100D3C0005D13C4BDB693B4A23F08053D3617B6884
:100D4C00DB69002B00F08780364B5B6803F00C03EB
:100D5C00082B61D07B68DB69022B46D1334B002218
:100D6C001A60FFF79BFB386108E0FFF797FB024620
:100D7C003B69D31A022B01D903236DE0294B1B6865
:100D8C0003F00073002BF0D17B681B6AB3F5803F36
:100D9C0008D1244B5B6823F400327B689B682149A3
:100DAC0013434B601F4B5B6823F474127B68196A06
:100DBC007B685B6A0B431B4913434B601B4B012243
:100DCC001A60FFF76BFB386108E0FFF767FB024620
:100DDC003B69D31A022B01D903233DE0114B1B684D
:100DEC0003F00073002BF0D035E0104B00221A609A
:100DFC00FFF754FB386108E0FFF750FB02463B69F4
:100E0C00D31A022B01D9032326E0064B1B6803F0EF
:100E1C000073002BF0D11EE07B68DB69012B07D13E
:100E2C00012319E0001002400070004060004242B3
:100E3C000B4B5B68FB60FB6803F480327B681B6ABE
:100E4C009A4206D1FB6803F470127B685B6A9A4283
:100E5C0001D0012300E0002318461837BD4680BDA1
:100E6C000010024080B584B000AF786039607B68B8
:100E7C00002B01D10123D0E06A4B1B6803F0070360
:100E8C003A689A4210D9674B1B6823F007026549F0
:100E9C003B6813430B60634B1B6803F007033A6812
:100EAC009A4201D00123B8E07B681B6803F002036F
:100EBC00002B20D07B681B6803F00403002B05D0AB
:100ECC00594B5B68584A43F4E06353607B681B687A
:100EDC0003F00803002B05D0534B5B68524A43F4D4
:100EEC0060535360504B5B6823F0F0027B689B6847
:100EFC004D4913434B607B681B6803F00103002BC7
:100F0C0040D07B685B68012B07D1474B1B6803F40F
:100F1C000033002B15D101237FE07B685B68022B2B
:100F2C0007D1414B1B6803F00073002B09D101233F
:100F3C0073E03D4B1B6803F00203002B01D101232E
:100F4C006BE0394B5B6823F003027B685B683649C6
:100F5C0013434B60FFF7A2FAF8600AE0FFF79EFA22
:100F6C000246FB68D31A41F28832934201D903231B
:100F7C0053E02D4B5B6803F00C027B685B689B00B5
:100F8C009A42EBD1274B1B6803F007033A689A424D
:100F9C0010D2244B1B6823F0070222493B681343F1
:100FAC000B60204B1B6803F007033A689A4201D090
:100FBC00012332E07B681B6803F00403002B08D08C
:100FCC00194B5B6823F4E0627B68DB6816491343BA
:100FDC004B607B681B6803F00803002B09D0124B95
:100FEC005B6823F460527B681B69DB000E4913437A
:100FFC004B6000F021F802460B4B5B681B0903F0B9
:10100C000F030A49CB5C22FA03F3094A1360094B1C
:10101C001B681846FFF712FA002318461037BD4616
:10102C0080BD00BF0020024000100240681900087B
:10103C00000000200400002080B487B000AF002323
:10104C00FB600023BB6000237B6100237B600023DB
:10105C003B611E4B5B68FB60FB6803F00C03042BCD
:10106C0002D0082B03D027E0194B3B6127E0FB682B
:10107C009B0C03F00F03174AD35C7B60FB6803F4F3
:10108C008033002B10D0114B5B685B0C03F0010319
:10109C00114AD35CBB607B680D4A03FB02F2BB6850
:1010AC00B2FBF3F37B6104E07B680C4A02FB03F3B5
:1010BC007B617B693B6102E0054B3B6100BF3B6997
:1010CC0018461C37BD4680BC704700BF001002405C
:1010DC0000127A00781900088819000800093D00F0
:1010EC0080B485B000AF78600A4B1B680A4AA2FB3B
:1010FC0003235B0A7A6802FB03F3FB6000BFFB6807
:10110C005A1EFA60002BF9D100BF00BF1437BD4640
:10111C0080BC704700000020D34D621080B582B0B7
:10112C0000AF78607B68002B01D1012341E07B6824
:10113C0093F83D30DBB2002B06D17B68002283F89C
:10114C003C207868FFF706F97B68022283F83D2083
:10115C007B681A687B6804331946104600F086F9E0
:10116C007B68012283F846207B68012283F83E20AD
:10117C007B68012283F83F207B68012283F84020A2
:10118C007B68012283F841207B68012283F842208E
:10119C007B68012283F843207B68012283F844207A
:1011AC007B68012283F845207B68012283F83D206F
:1011BC00002318460837BD4680BD000080B584B0BA
:1011CC0000AF786039603B68002B09D17B6893F8DD
:1011DC003E30DBB2012B14BF01230023DBB222E033
:1011EC003B68042B09D17B6893F83F30DBB2012BB1
:1011FC0014BF01230023DBB215E03B68082B09D197
:10120C007B6893F84030DBB2012B14BF0123002321
:10121C00DBB208E07B6893F84130DBB2012B14BFE2
:10122C0001230023DBB2002B01D001235EE03B68DD
:10123C00002B04D17B68022283F83E2013E03B682C
:10124C00042B04D17B68022283F83F200BE03B681F
:10125C00082B04D17B68022283F8402003E07B68D2
:10126C00022283F841207B681B68012239681846EA
:10127C0000F0F2FA7B681B681E4A934207D17B6828
:10128C001B685A6C7B681B6842F400425A647B688A
:10129C001B68184A93420ED07B681B68B3F1804FD1
:1012AC0009D07B681B68144A934204D07B681B6886
:1012BC00124A934211D17B681B689B6803F00703A9
:1012CC00FB60FB68062B10D07B681B681A687B6878
:1012DC001B6842F001021A6007E07B681B681A6801
:1012EC007B681B6842F001021A6000231846103715
:1012FC00BD4680BD002C01400004004000080040A9
:10130C0080B586B000AFF860B9607A600023FB75D9
:10131C00FB6893F83C30012B01D10223A2E0FB685F
:10132C00012283F83C207B680C2B72D07B680C2B41
:10133C0000F290807B68082B4BD07B68082B00F266
:10134C0089807B68002B03D07B68042B20D081E044
:10135C00FB681B68B968184600F0F0F8FB681B685E
:10136C009A69FB681B6842F008029A61FB681B686B
:10137C009A69FB681B6822F004029A61FB681B687F
:10138C009969BB681A69FB681B680A439A6164E037
:10139C00FB681B68B968184600F038F9FB681B68D5
:1013AC009A69FB681B6842F400629A61FB681B68CF
:1013BC009A69FB681B6822F480629A61FB681B685F
:1013CC009969BB681B691A02FB681B680A439A611E
:1013DC0043E0FB681B68B968184600F083F9FB68AA
:1013EC001B68DA69FB681B6842F00802DA61FB686B
:1013FC001B68DA69FB681B6822F00402DA61FB687F
:10140C001B68D969BB681A69FB681B680A43DA61F7
:10141C0023E0FB681B68B968184600F0CFF9FB683D
:10142C001B68DA69FB681B6842F40062DA61FB68CE
:10143C001B68DA69FB681B6822F48062DA61FB685E
:10144C001B68D969BB681B691A02FB681B680A43D5
:10145C00DA6102E00123FB7500BFFB68002283F810
:10146C003C20FB7D18461837BD4680BD80B485B046
:10147C0000AF786039607B681B68FB607B682C4A26
:10148C0093420BD07B68B3F1804F07D07B68294A1D
:10149C00934203D07B68284A934208D1FB6823F01F
:1014AC007003FB603B685B68FA681343FB607B6806
:1014BC001F4A93420BD07B68B3F1804F07D07B68F7
:1014CC001C4A934203D07B681B4A934208D1FB68A9
:1014DC0023F44073FB603B68DB68FA681343FB60E2
:1014EC00FB6823F080023B685B691343FB603B683D
:1014FC009A687B68DA623B681A687B689A627B68D8
:10150C000B4A934203D13B681A697B681A637B6868
:10151C001B6843F004027B681A607B6801225A61E5
:10152C007B68FA681A6000BF1437BD4680BC7047F0
:10153C00002C0140000400400008004080B487B03B
:10154C0000AF786039607B681B6A7B617B681B6AC3
:10155C0023F001027B681A627B685B683B617B68E5
:10156C009B69FB60FB6823F07003FB60FB6823F056
:10157C000303FB603B681B68FA681343FB607B69E1
:10158C0023F002037B613B689B687A6913437B61A0
:10159C007B681D4A93420ED17B681B6A23F00402C0
:1015AC007B681A627B6923F008037B613B68DB680C
:1015BC007A6913437B617B68134A934211D13B696F
:1015CC0023F480733B613B6923F400733B613B68FC
:1015DC005B693A6913433B613B689B693A69134306
:1015EC003B617B683A695A607B68FA689A613B6830
:1015FC005A687B685A637B687A691A6200BF1C3729
:10160C00BD4680BC704700BF002C014080B487B041
:10161C0000AF786039607B681B6A7B617B681B6AF2
:10162C0023F010027B681A627B685B683B617B6805
:10163C009B69FB60FB6823F4E043FB60FB6823F4CD
:10164C004073FB603B681B681B02FA681343FB602A
:10165C007B6923F020037B613B689B681B017A69E3
:10166C0013437B617B681E4A93420FD17B681B6AD4
:10167C0023F040027B681A627B6923F080037B6154
:10168C003B68DB681B017A6913437B617B68144AF6
:10169C00934213D13B6923F480633B613B6923F490
:1016AC0000633B613B685B699B003A6913433B6198
:1016BC003B689B699B003A6913433B617B683A69C1
:1016CC005A607B68FA689A613B685A687B689A63CF
:1016DC007B687A691A6200BF1C37BD4680BC7047B4
:1016EC00002C014080B487B000AF786039607B6813
:1016FC001B6A7B617B681B6A23F480727B681A62AD
:10170C007B685B683B617B68DB69FB60FB6823F093
:10171C007003FB60FB6823F00303FB603B681B68F2
:10172C00FA681343FB607B6923F400737B613B68AD
:10173C009B681B027A6913437B617B681E4A934248
:10174C000FD17B681B6A23F480627B681A627B6909
:10175C0023F400637B613B68DB681B027A691343EB
:10176C007B617B68144A934213D13B6923F4805309
:10177C003B613B6923F400533B613B685B691B0194
:10178C003A6913433B613B689B691B013A691343FC
:10179C003B617B683A695A607B68FA68DA613B683E
:1017AC005A687B68DA637B687A691A6200BF1C37F7
:1017BC00BD4680BC704700BF002C014080B487B090
:1017CC0000AF786039607B681B6A3B617B681B6A81
:1017DC0023F480527B681A627B685B687B617B6850
:1017EC00DB69FB60FB6823F4E043FB60FB6823F4DC
:1017FC004073FB603B681B681B02FA681343FB6079
:10180C003B6923F400533B613B689B681B033A69BB
:10181C0013433B617B680F4A934209D17B6923F4E4
:10182C0080437B613B685B699B017A6913437B61F5
:10183C007B687A695A607B68FA68DA613B685A6837
:10184C007B681A647B683A691A6200BF1C37BD4614
:10185C0080BC7047002C014080B487B000AFF860AA
:10186C00B9607A60BB6803F01F03012202FA03F32C
:10187C007B61FB681A6A7B69DB431A40FB681A625E
:10188C00FB681A6ABB6803F01F03796801FA03F35B
:10189C001A43FB681A6200BF1C37BD4680BC7047F8
:1018AC00FEF7AAFD0B480C490C4A002302E0D45861
:1018BC00C4500433C4188C42F9D3094A094C002390
:1018CC0001E013600432A242FBD300F017F8FEF7DC
:1018DC005DFC7047000000200C00002094190008EB
:1018EC000C00002074000020FEE7034602449342E3
:1018FC0000D1704703F8011BF9E7000070B5002612
:10190C000C4C0D4B1D1BB6EBA50F09D1002600F09E
:10191C0019F80A4C0A4B1D1BB6EBA50F05D170BD6F
:10192C0054F8043B98470136EDE754F8043B9847CC
:10193C000136F1E78C1900088C1900088C19000885
:10194C0090190008F8B500BFF8BC08BC9E4670475B
:0C195C00F8B500BFF8BC08BC9E46704700
:101968000000000000000000010203040607080947
:1019780002030405060708090A0B0C0D0E0F1010C8
:041988000102000058
:04198C0075010008D9
:041990004D010008FD
:0C19940000127A001000000001000000AA
:04000005080018AD2A
:00000001FF
