:020000040800F2
:1000000000500020AD220008F5220008F52200086B
:10001000F5220008F5220008F52200080000000083
:10002000000000000000000000000000F5220008B1
:10003000F522000800000000F5220008590200081F
:10004000F5220008F5220008F5220008F522000834
:10005000F5220008F5220008F5220008F522000824
:10006000F5220008F5220008F5220008F522000814
:10007000F5220008F5220008F5220008F522000804
:10008000F5220008F5220008F5220008F5220008F4
:10009000F5220008F5220008F5220008F5220008E4
:1000A000F5220008F5220008F5220008F5220008D4
:1000B000F5220008F5220008F5220008F5220008C4
:1000C000F5220008F5220008F5220008F5220008B4
:1000D000F5220008F5220008F5220008F5220008A4
:1000E000F5220008F5220008F522000800000000B3
:1000F0000000000000000000000000000000000000
:0C01000000000000000000005FF808F1A3
:10010C00034613F8012B002AFBD1181A013870474B
:10011C000348044B834202D0034B03B1184770478A
:10012C005C0000205C000020000000000548064B2D
:10013C001B1AD90F01EBA301491002D0034B03B1D9
:10014C00184770475C0000205C0000200000000095
:10015C0010B5064C237843B9FFF7DAFF044B13B103
:10016C000448AFF300800123237010BD5C00002015
:10017C0000000000A42C000808B5054B1BB1054974
:10018C000548AFF30080BDE80840FFF7CFBF00BFC4
:10019C000000000060000020A42C000880B59EB078
:1001AC0002AF00F0A5F900F057F800F0A5F800F048
:1001BC00E1F8224800F084FE0346002B01D000F049
:1001CC008BF91E4800F0F8FA0346002B01D000F022
:1001DC0083F96421194800F0C9FB0346002B24D194
:1001EC00164800F0C9FCF866FB6E40F6E44203FBCF
:1001FC0002F2134BA3FB0213D21A52081344DB0A6C
:10020C00BB66381DBB6E0093FB6E0E4A642102F078
:10021C006DF83B1D1846FFF773FF03469AB2391D64
:10022C004FF0FF33084801F067FE044800F072FB02
:10023C004FF47A7000F0C4F9C3E700BF78000020D7
:10024C0001011000BC2C0008A800002080B500AFF4
:10025C0000F09AF900BF80BD80B590B000AF07F1F7
:10026C00180328220021184602F072F83B1D0022C8
:10027C001A605A609A60DA601A610123BB614FF40C
:10028C008033FB6100233B620123BB6202237B634F
:10029C004FF48033BB634FF4E013FB6307F1180397
:1002AC00184601F013F90346002B01D000F014F9A5
:1002BC000F237B600223BB600023FB604FF4806341
:1002CC003B6100237B613B1D0221184601F080FB42
:1002DC000346002B01D000F0FFF8064B5B6823F4BB
:1002EC004043044A43F40043536000BF4037BD46CB
:1002FC0080BD00BF0010024080B584B000AF3B1D34
:10030C0000221A605A609A60184B194A1A60174BEF
:10031C0000229A60154B00221A73144B00221A7596
:10032C00124B4FF46022DA61104B00225A600F4BD3
:10033C0001221A610D4800F067F90346002B01D029
:10034C0000F0CAF800237B600123BB600523FB602F
:10035C003B1D1946054800F01BFC0346002B01D041
:10036C0000F0BAF800BF1037BD4680BD7800002001
:10037C000024014080B500AF114B124A1A60104B9B
:10038C004FF4E1325A600E4B00229A600C4B002263
:10039C00DA600B4B00221A61094B0C225A61084B94
:1003AC0000229A61064B0022DA61054801F054FDE7
:1003BC000346002B01D000F08FF800BF80BD00BFBA
:1003CC00A80000200038014080B588B000AF7860EC
:1003DC0007F1100300221A605A609A60DA607B6899
:1003EC001B68144A934221D1134B9B69124A43F464
:1003FC0000739361104B9B6903F40073FB60FB6803
:10040C000D4B9B690C4A43F0040393610A4B9B69A7
:10041C0003F00403BB60BB6801233B6103237B61D6
:10042C0007F110031946054800F0E2FE00BF203723
:10043C00BD4680BD00240140001002400008014070
:10044C0080B588B000AF786007F1100300221A6005
:10045C005A609A60DA607B681B681C4A934231D1FF
:10046C001B4B9B691A4A43F480439361184B9B695D
:10047C0003F48043FB60FB68154B9B69144A43F003
:10048C0004039361124B9B6903F00403BB60BB68CC
:10049C004FF400733B6102237B610323FB6107F183
:1004AC00100319460B4800F0A3FE4FF480633B6128
:1004BC0000237B610023BB6107F11003194605483B
:1004CC0000F096FE00BF2037BD4680BD00380140CD
:1004DC00001002400008014080B400AF72B600BFAB
:1004EC0000BFFDE780B400AF00BFBD4680BC7047C5
:1004FC0080B500AF084B1B68074A43F0100313602C
:10050C00032000F041FE0F2000F00EF800F006F87A
:10051C000023184680BD00BF0020024080B400AF0D
:10052C0000BFBD4680BC704780B582B000AF78601C
:10053C00124B1A68124B1B7819464FF47A73B3FBA3
:10054C00F1F3B2FBF3F3184600F045FE0346002B23
:10055C0001D001230EE07B680F2B0AD800227968AA
:10056C004FF0FF3000F01BFE064A7B68136000233F
:10057C0000E0012318460837BD4680BD000000206E
:10058C00080000200400002080B400AF054B1B784D
:10059C001A46054B1B681344034A136000BFBD4643
:1005AC0080BC704708000020F000002080B400AF31
:1005BC00024B1B681846BD4680BC7047F0000020FB
:1005CC0080B584B000AF7860FFF7F0FFB8607B684F
:1005DC00FB60FB68B3F1FF3F05D00A4B1B781A4652
:1005EC00FB681344FB6000BFFFF7E0FF0246BB68EB
:1005FC00D31AFA689A42F7D800BF00BF1037BD462D
:10060C0080BD00BF0800002080B586B000AF7860C8
:10061C000023FB7500233B610023BB600023FB60C0
:10062C007B68002B01D10123BEE07B689B68002B0B
:10063C007B689B6A002B09D17B680022DA627B689D
:10064C00002283F824207868FFF7BEFE786800F05B
:10065C00F5FB0346FB757B689B6A03F01003002BCC
:10066C0040F09980FB7D002B40F095807B689B6A65
:10067C0023F4885323F0020343F002027B689A624E
:10068C007B685A687B68DB691A437B681B7B5B0061
:10069C001343BA681343BB607B689B68B3F5807FD8
:1006AC0003D07B689B68012B02D14FF4807300E070
:1006BC0000233A6913433B617B681B7D012B19D1E5
:1006CC007B681B7B002B09D17B689B69013B5A0320
:1006DC003B69134343F400633B610BE07B689B6A0B
:1006EC0043F020027B689A627B68DB6A43F001026C
:1006FC007B68DA627B681B685B6823F469417B6802
:10070C001B683A690A435A607B681B689A68284BD5
:10071C0013407A681268B9680B4393607B689B68D6
:10072C00B3F5807F03D07B689B68012B04D17B6879
:10073C001B69013B1B05FB607B681B68DB6A23F4B0
:10074C0070017B681B68FA680A43DA627B681B6875
:10075C009A68184B1340BA689A420BD17B680022F6
:10076C00DA627B689B6A23F0030343F001027B6827
:10077C009A6218E07B689B6A23F0120343F0100224
:10078C007B689A627B68DB6A43F001027B68DA6201
:10079C000123FB7507E07B689B6A43F010027B68C2
:1007AC009A620123FB75FB7D18461837BD4680BD48
:1007BC00FDF7E1FFFE0E1FFF80B584B000AF78603F
:1007CC000023FB737B6893F82430012B01D10223A7
:1007DC0098E07B68012283F82420786800F0D4FA32
:1007EC000346FB73FB7B002B40F087807B689B6A86
:1007FC0023F4407323F0010343F480727B689A6204
:10080C007B681B68414A934205D1414B5B6803F4FA
:10081C007023002B15D17B689B6A23F480127B68B4
:10082C009A627B681B685B6803F48063002B26D09C
:10083C007B689B6A23F4405343F480527B689A6232
:10084C001DE07B689B6A43F480127B689A627B682C
:10085C001B682F4A934204D07B681B682B4A934237
:10086C000DD12B4B5B6803F48063002B07D07B68A6
:10087C009B6A23F4405343F480527B689A627B68F2
:10088C009B6A03F48053002B06D07B68DB6A23F051
:10089C0006027B68DA6202E07B680022DA627B681F
:1008AC00002283F824207B681B686FF002021A6018
:1008BC007B681B689B6803F46023B3F5602F13D12E
:1008CC007B681B68114A934205D1114B5B6803F49A
:1008DC007023002B08D17B681B689A687B681B68A7
:1008EC0042F4A0029A600CE07B681B689A687B68F3
:1008FC001B6842F480129A6003E07B68002283F844
:10090C002420FB7B18461037BD4680BD00280140D3
:10091C000024014080B584B000AF78600023FB73E5
:10092C007B6893F82430012B01D102231AE07B68F9
:10093C00012283F82420786800F080FA0346FB73C8
:10094C00FB7B002B09D17B689B6A23F4885323F033
:10095C00010343F001027B689A627B68002283F8F2
:10096C002420FB7B18461037BD4680BD90B587B060
:10097C0000AF7860396000237B610023FB600023AB
:10098C003B61FFF713FE78617B681B689B6803F47F
:10099C008073002B0BD07B689B6A43F020027B6832
:1009AC009A627B68002283F824200123D3E07B68C1
:1009BC001B685B6803F48073002B31D17B681B6868
:1009CC00DB6A03F47003002B2AD121E03B68B3F1FE
:1009DC00FF3F1DD03B68002B07D0FFF7E7FD024619
:1009EC007B69D31A3A689A4212D27B681B681B68DF
:1009FC0003F00203002B0BD17B689B6A43F00402CB
:100A0C007B689A627B68002283F824200323A2E08F
:100A1C007B681B681B6803F00203002BD6D070E0C8
:100A2C004F4B1C68022001F061F90346B4FBF3F252
:100A3C007B681B6819694B4B0B40002B18D17B68EA
:100A4C001B68D968484B0B40002B11D17B681B6885
:100A5C001969464B0B40002B08D17B681B68D96881
:100A6C00434B0B40002B01D1142320E029231EE023
:100A7C007B681B6819693D4B0B40002B06D17B68CA
:100A8C001B68D9683A4B0B40002B0DD07B681B6858
:100A9C001969384B0B40002B08D17B681B68D9684F
:100AAC00344B0B40002B01D1542300E0FC2302FB00
:100ABC0003F33B6121E03B68B3F1FF3F1AD03B6885
:100ACC00002B07D0FFF772FD02467B69D31A3A68F8
:100ADC009A420FD2FB683A699A420BD97B689B6A9F
:100AEC0043F004027B689A627B68002283F824201E
:100AFC00032330E0FB680133FB60FB683A699A42E0
:100B0C00D9D87B681B686FF012021A607B689B6AED
:100B1C0043F400727B689A627B681B689B6803F4E1
:100B2C006023B3F5602F15D17B681B7B002B11D193
:100B3C007B689B6A23F480727B689A627B689B6AF1
:100B4C0003F48053002B05D17B689B6A43F00102B0
:100B5C007B689A62002318461C37BD4690BD00BFC7
:100B6C000000002024499224244992009224491226
:100B7C00922449004992240080B483B000AF78607D
:100B8C007B681B68DB6C18460C37BD4680BC704715
:100B9C0080B485B000AF786039600023FB7300230C
:100BAC00BB607B6893F82430012B01D10223E0E079
:100BBC007B68012283F824203B685B68062B1CD8D9
:100BCC007B681B68596B3B685B685A1E13469B001D
:100BDC0013441F2202FA03F3DB4319403B681868E5
:100BEC003B685B685A1E13469B00134400FA03F2E1
:100BFC007B681B680A435A633EE03B685B680C2BBE
:100C0C001CD87B681B68196B3B685B68DA1F134642
:100C1C009B0013441F2202FA03F3DB4319403B6889
:100C2C0018683B685B68DA1F13469B00134400FA94
:100C3C0003F27B681B680A431A631DE07B681B6820
:100C4C00D96A3B685B68A3F10D0213469B00134401
:100C5C001F2202FA03F3DB4319403B6818683B6818
:100C6C005B68A3F10D0213469B00134400FA03F2D8
:100C7C007B681B680A43DA623B681B68092B1ED928
:100C8C007B681B68D9683B681B68A3F10A02134692
:100C9C005B001344072202FA03F3DB4319403B6861
:100CAC0098683B681B68A3F10A0213465B00134467
:100CBC0000FA03F27B681B680A43DA6019E07B6870
:100CCC001B6819693B681A6813465B0013440722BA
:100CDC0002FA03F3DB4319403B6898683B681A68D7
:100CEC0013465B00134400FA03F27B681B680A434B
:100CFC001A613B681B68102B03D03B681B68112BD7
:100D0C0032D17B681B681D4A934225D17B681B68D6
:100D1C009B6803F40003002B26D17B681B689A6840
:100D2C007B681B6842F400029A603B681B68102BBE
:100D3C001AD1134B1B68134AA2FB03239A0C1346BC
:100D4C009B0013445B00BB6002E0BB68013BBB60D3
:100D5C00BB68002BF9D107E07B689B6A43F020024B
:100D6C007B689A620123FB737B68002283F8242042
:100D7C00FB7B18461437BD4680BC704700240140ED
:100D8C000000002083DE1B4380B584B000AF786088
:100D9C000023FB600023BB607B681B689B6803F02F
:100DAC000103012B40D07B681B689A687B681B6829
:100DBC0042F001029A601F4B1B681F4AA2FB0323DF
:100DCC009B0CBB6002E0BB68013BBB60BB68002BAB
:100DDC00F9D1FFF7EBFBF8601FE0FFF7E7FB0246EA
:100DEC00FB68D31A022B18D97B681B689B6803F02D
:100DFC000103012B11D07B689B6A43F010027B68C6
:100E0C009A627B68DB6A43F001027B68DA627B687A
:100E1C00002283F82420012307E07B681B689B6871
:100E2C0003F00103012BD8D1002318461037BD461F
:100E3C0080BD00BF0000002083DE1B4380B584B062
:100E4C0000AF78600023FB607B681B689B6803F035
:100E5C000103012B2ED17B681B689A687B681B6889
:100E6C0022F001029A60FFF7A1FBF8601BE0FFF78C
:100E7C009DFB0246FB68D31A022B14D97B681B68B6
:100E8C009B6803F00103012B0DD17B689B6A43F037
:100E9C0010027B689A627B68DB6A43F001027B6814
:100EAC00DA62012307E07B681B689B6803F001038F
:100EBC00012BDCD0002318461037BD4680BD000046
:100ECC0090B587B000AF78600023FB750023FB6002
:100EDC007B6893F82430012B01D1022397E07B68C7
:100EEC00012283F824207868FFF7A8FF0346FB75DE
:100EFC007868FFF749FF0346FB75FB7D002B40F03C
:100F0C0081807B689B6A23F4885323F0020343F0AF
:100F1C0002027B689A62404B1C68022000F0E6FEDD
:100F2C000346B4FBF3F35B00FB6002E0FB68013BA0
:100F3C00FB60FB68002BF9D17B681B689A687B68A7
:100F4C001B6842F008029A60FFF730FB38611BE027
:100F5C00FFF72CFB02463B69D31A0A2B14D97B688A
:100F6C001B689B6803F00803002B0DD07B689B6A01
:100F7C0023F0120343F010027B689A627B68002214
:100F8C0083F82420012342E07B681B689B6803F0F4
:100F9C000803002BDCD17B681B689A687B681B6894
:100FAC0042F004029A60FFF701FB38611BE0FFF787
:100FBC00FDFA02463B69D31A0A2B14D97B681B68CD
:100FCC009B6803F00403002B0DD07B689B6A23F015
:100FDC00120343F010027B689A627B68002283F84C
:100FEC002420012313E07B681B689B6803F0040337
:100FFC00002BDCD17B689B6A23F0030343F00102D6
:10100C007B689A627B68002283F82420FB7D18465B
:10101C001C37BD4690BD00BF0000002080B485B0D9
:10102C0000AF78607B6803F00703FB600C4BDB6858
:10103C00BB60BA684FF6FF031340BB60FB681A0233
:10104C00BB68134343F0BF6343F40033BB60044AF3
:10105C00BB68D36000BF1437BD4680BC704700BF6F
:10106C0000ED00E080B400AF044BDB681B0A03F01A
:10107C0007031846BD4680BC704700BF00ED00E07A
:10108C0080B483B000AF03463960FB7197F9073029
:10109C00002B0ADB3B68DAB20C4997F907301201D6
:1010AC00D2B20B4483F800230AE03B68DAB2084959
:1010BC00FB7903F00F03043B1201D2B20B441A76F6
:1010CC0000BF0C37BD4680BC704700BF00E100E09C
:1010DC0000ED00E080B489B000AFF860B9607A60D0
:1010EC00FB6803F007037B617B69033B042B04D88B
:1010FC007B69C3F10703FB6101E00423FB617B699E
:10110C000433062B03D97B69033BBB6101E000234D
:10111C00BB614FF0FF32FB6902FA03F3DA43BB68A1
:10112C001A40BB699A404FF0FF31BB6901FA03F3D7
:10113C00D9437B680B40134318462437BD4680BC0B
:10114C007047000080B582B000AF78607B68013BCF
:10115C00B3F1807F01D301230FE00A4A7B68013B86
:10116C0053600F214FF0FF30FFF78AFF054B002231
:10117C009A60044B07221A60002318460837BD46B4
:10118C0080BD00BF10E000E080B582B000AF786099
:10119C007868FFF743FF00BF0837BD4680BD80B5B8
:1011AC0086B000AF0346B9607A60FB7300237B61A5
:1011BC00FFF758FF78617A68B9687869FFF78AFF9A
:1011CC00024697F90F3011461846FFF759FF00BF3A
:1011DC001837BD4680BD80B582B000AF78607868A6
:1011EC00FFF7B0FF034618460837BD4680BD000028
:1011FC0080B48BB000AF7860396000237B62002331
:10120C003B6253E101227B6A02FA03F37B613B6888
:10121C001B687A6913403B613A697B699A4240F0DA
:10122C0042813B685B688F4A934247D08D4A934218
:10123C005ED88D4A934241D08B4A934258D88B4A00
:10124C0093423BD0894A934252D8894A934235D033
:10125C00874A93424CD8874A93422FD0854A93426F
:10126C0046D8854A934229D0834A934240D8122BC0
:10127C001FD0122B3CD8112B11D0112B38D8032B8B
:10128C0033D0032B34D8022B0ED0022B30D8002BAA
:10129C0014D0012B2CD13B68DB683B6229E03B6806
:1012AC00DB6804333B6224E03B68DB6808333B6259
:1012BC001FE03B68DB680C333B621AE03B689B68C1
:1012CC00002B02D104233B6213E03B689B68012B8B
:1012DC0005D108233B627B687A691A6109E008230F
:1012EC003B627B687A695A6103E000233B6200E051
:1012FC0000BF3B69FF2B02D87B68FB6102E07B6877
:10130C000433FB613B69FF2B03D87B6A9B00BB61F9
:10131C0003E07B6A083B9B00BB61FB691A680F21E9
:10132C00BB6901FA03F3DB431A40396ABB6901FA62
:10133C0003F31A43FB691A603B685B6803F0805344
:10134C00002B00F0B0804D4B9B694C4A43F00103DD
:10135C0093614A4B9B6903F00103BB60BB68484A2D
:10136C007B6A9B08023352F82330FB607B6A03F0E4
:10137C0003039B000F2202FA03F3DB43FA681340CA
:10138C00FB607B683F4A934213D07B683E4A934292
:10139C000DD07B683D4A934207D07B683C4A934210
:1013AC0001D1032306E0042304E0022302E001231D
:1013BC0000E000237A6A02F0030292009340FA687C
:1013CC001343FB602E497B6A9B080233FA6841F891
:1013DC0023203B685B6803F48013002B06D02D4B55
:1013EC009A682C493B6913438B6006E0294B9A6839
:1013FC003B69DB43274913408B603B685B6803F414
:10140C000013002B06D0234BDA6822493B691343A7
:10141C00CB6006E01F4BDA683B69DB431D49134088
:10142C00CB603B685B6803F40033002B06D0194B90
:10143C005A6818493B6913434B6006E0154B5A68D0
:10144C003B69DB43134913404B603B685B6803F417
:10145C008033002B20D00F4B1A680E493B69134385
:10146C000B6020E000003210000031100000221050
:10147C00000021100000121000001110001002409A
:10148C000000014000080140000C01400010014028
:10149C0000140140000401400B4B1A683B69DB430C
:1014AC00094913400B607B6A01337B623B681A6805
:1014BC007B6A22FA03F3002B7FF4A4AE00BF00BFBB
:1014CC002C37BD4680BC70470004014080B586B007
:1014DC0000AF78607B68002B01D1012372E27B683E
:1014EC001B6803F00103002B00F08780924B5B68B4
:1014FC0003F00C03042B0CD08F4B5B6803F00C0334
:10150C00082B12D18C4B5B6803F48033B3F5803F0E
:10151C000BD1894B1B6803F40033002B6CD07B6818
:10152C005B68002B68D101234CE27B685B68B3F5E8
:10153C00803F06D1804B1B687F4A43F48033136095
:10154C002EE07B685B68002B0CD17B4B1B687A4AC6
:10155C0023F480331360784B1B68774A23F4802381
:10156C0013601DE07B685B68B3F5A02F0CD1724B48
:10157C001B68714A43F4802313606F4B1B686E4ADF
:10158C0043F4803313600BE06B4B1B686A4A23F403
:10159C0080331360684B1B68674A23F48023136005
:1015AC007B685B68002B13D0FFF700F8386108E00C
:1015BC00FEF7FCFF02463B69D31A642B01D90323C7
:1015CC0000E25D4B1B6803F40033002BF0D014E0F9
:1015DC00FEF7ECFF386108E0FEF7E8FF02463B69D6
:1015EC00D31A642B01D90323ECE1534B1B6803F48E
:1015FC000033002BF0D100E000BF7B681B6803F0C8
:10160C000203002B63D04C4B5B6803F00C03002BE4
:10161C000BD0494B5B6803F00C03082B1CD1464BD9
:10162C005B6803F48033002B16D1434B1B6803F02B
:10163C000203002B05D07B681B69012B01D0012311
:10164C00C0E13D4B1B6823F0F8027B685B69DB0053
:10165C00394913430B603AE07B681B69002B20D09F
:10166C00364B01221A60FEF7A1FF386108E0FEF745
:10167C009DFF02463B69D31A022B01D90323A1E13A
:10168C002D4B1B6803F00203002BF0D02A4B1B6878
:10169C0023F0F8027B685B69DB00274913430B607E
:1016AC0015E0264B00221A60FEF780FF386108E037
:1016BC00FEF77CFF02463B69D31A022B01D90323A8
:1016CC0080E11D4B1B6803F00203002BF0D17B68FB
:1016DC001B6803F00803002B3AD07B689B69002B36
:1016EC0019D0174B01221A60FEF760FF386108E031
:1016FC00FEF75CFF02463B69D31A022B01D9032388
:10170C0060E10D4B5B6A03F00203002BF0D001206B
:10171C0000F0CEFA1CE00A4B00221A60FEF746FFDE
:10172C0038610FE0FEF742FF02463B69D31A022BE9
:10173C0008D9032346E100BF0010024000004242DA
:10174C0080044242924B5B6A03F00203002BE9D106
:10175C007B681B6803F00403002B00F0A6800023B9
:10176C00FB758B4BDB6903F08053002B0DD1884B41
:10177C00DB69874A43F08053D361854BDB6903F007
:10178C008053BB60BB680123FB75824B1B6803F461
:10179C008073002B18D17F4B1B687E4A43F48073F7
:1017AC001360FEF703FF386108E0FEF7FFFE024608
:1017BC003B69D31A642B01D9032303E1754B1B68D6
:1017CC0003F48073002BF0D07B68DB68012B06D10F
:1017DC006F4B1B6A6E4A43F0010313622DE07B686A
:1017EC00DB68002B0CD16A4B1B6A694A23F001039E
:1017FC001362674B1B6A664A23F0040313621CE0F6
:10180C007B68DB68052B0CD1614B1B6A604A43F08B
:10181C00040313625E4B1B6A5D4A43F001031362BF
:10182C000BE05B4B1B6A5A4A23F001031362584BC3
:10183C001B6A574A23F0040313627B68DB68002B96
:10184C0015D0FEF7B3FE38610AE0FEF7AFFE024694
:10185C003B69D31A41F28832934201D90323B1E098
:10186C004B4B1B6A03F00203002BEED014E0FEF787
:10187C009DFE38610AE0FEF799FE02463B69D31AD9
:10188C0041F28832934201D903239BE0404B1B6AFF
:10189C0003F00203002BEED1FB7D012B05D13C4B59
:1018AC00DB693B4A23F08053D3617B68DB69002BF7
:1018BC0000F08780364B5B6803F00C03082B61D07B
:1018CC007B68DB69022B46D1334B00221A60FEF792
:1018DC006DFE386108E0FEF769FE02463B69D31ADB
:1018EC00022B01D903236DE0294B1B6803F0007315
:1018FC00002BF0D17B681B6AB3F5803F08D1244BD9
:10190C005B6823F400327B689B68214913434B606E
:10191C001F4B5B6823F474127B68196A7B685B6AE3
:10192C000B431B4913434B601B4B01221A60FEF700
:10193C003DFE386108E0FEF739FE02463B69D31ADA
:10194C00022B01D903233DE0114B1B6803F00073FC
:10195C00002BF0D035E0104B00221A60FEF726FE6B
:10196C00386108E0FEF722FE02463B69D31A022BCF
:10197C0001D9032326E0064B1B6803F00073002BF0
:10198C00F0D11EE07B68DB69012B07D1012319E044
:10199C000010024000700040600042420B4B5B683C
:1019AC00FB60FB6803F480327B681B6A9A4206D1A9
:1019BC00FB6803F470127B685B6A9A4201D00123C6
:1019CC0000E0002318461837BD4680BD00100240C9
:1019DC0080B584B000AF786039607B68002B01D192
:1019EC000123D0E06A4B1B6803F007033A689A4264
:1019FC0010D9674B1B6823F0070265493B681343FA
:101A0C000B60634B1B6803F007033A689A4201D0E2
:101A1C000123B8E07B681B6803F00203002B20D085
:101A2C007B681B6803F00403002B05D0594B5B68E3
:101A3C00584A43F4E06353607B681B6803F0080367
:101A4C00002B05D0534B5B68524A43F460535360F0
:101A5C00504B5B6823F0F0027B689B684D49134345
:101A6C004B607B681B6803F00103002B40D07B6844
:101A7C005B68012B07D1474B1B6803F40033002B29
:101A8C0015D101237FE07B685B68022B07D1414BAA
:101A9C001B6803F00073002B09D1012373E03D4B4D
:101AAC001B6803F00203002B01D101236BE0394BBF
:101ABC005B6823F003027B685B68364913434B6019
:101ACC00FEF774FDF8600AE0FEF770FD0246FB6855
:101ADC00D31A41F28832934201D9032353E02D4BA0
:101AEC005B6803F00C027B685B689B009A42EBD14D
:101AFC00274B1B6803F007033A689A4210D2244B19
:101B0C001B6823F0070222493B6813430B60204BF0
:101B1C001B6803F007033A689A4201D0012332E0B4
:101B2C007B681B6803F00403002B08D0194B5B681F
:101B3C0023F4E0627B68DB68164913434B607B68D7
:101B4C001B6803F00803002B09D0124B5B6823F4CD
:101B5C0060527B681B69DB000E4913434B6000F03D
:101B6C0021F802460B4B5B681B0903F00F030A4973
:101B7C00CB5C22FA03F3094A1360094B1B68184625
:101B8C00FEF7D2FC002318461037BD4680BD00BFBF
:101B9C000020024000100240DC2C00080000002055
:101BAC000400002080B487B000AF0023FB6000234A
:101BBC00BB6000237B6100237B6000233B611E4BD9
:101BCC005B68FB60FB6803F00C03042B02D0082B52
:101BDC0003D027E0194B3B6127E0FB689B0C03F01B
:101BEC000F03174AD35C7B60FB6803F48033002B34
:101BFC0010D0114B5B685B0C03F00103114AD35CF2
:101C0C00BB607B680D4A03FB02F2BB68B2FBF3F3CB
:101C1C007B6104E07B680C4A02FB03F37B617B690C
:101C2C003B6102E0054B3B6100BF3B6918461C372A
:101C3C00BD4680BC704700BF0010024000127A0005
:101C4C00F42C0008042D000800093D0080B400AFFE
:101C5C00024B1B681846BD4680BC70470000002034
:101C6C0080B500AFFFF7F2FF0246054B5B681B0A1D
:101C7C0003F007030349CB5C22FA03F3184680BD3B
:101C8C0000100240EC2C000880B500AFFFF7DEFF1F
:101C9C000246054B5B68DB0A03F007030349CB5C88
:101CAC0022FA03F3184680BD00100240EC2C000809
:101CBC0080B485B000AF78600A4B1B680A4AA2FB5F
:101CCC0003235B0A7A6802FB03F3FB6000BFFB682B
:101CDC005A1EFA60002BF9D100BF00BF1437BD4665
:101CEC0080BC704700000020D34D621080B588B0D6
:101CFC0000AF786000237B610023FB6100233B6114
:101D0C000023FB600023BB617B68102B0AD07B682F
:101D1C00102B00F28A807B68012B45D07B68022B4C
:101D2C0075D082E0464B5B68FB60454B1B6803F04B
:101D3C008073002B7BD0FB689B0C03F00F03414A94
:101D4C00D35C3B61FB6803F48033002B15D03C4B18
:101D5C005B685B0C03F001033B4AD35C7B61FB6863
:101D6C0003F48033002B0DD0384A7B69B2FBF3F2BD
:101D7C003B6902FB03F3FB6104E03B69344A02FB61
:101D8C0003F3FB612E4B5B6803F48003B3F5800F08
:101D9C0002D1FB69BB614AE0FB695B002D4AA2FBE7
:101DAC0003235B08BB6142E0254B1B6AFB60FB68AD
:101DBC0003F44073B3F5807F08D1FB6803F0020392
:101DCC00002B03D04FF40043BB611FE0FB6803F40E
:101DDC004073B3F5007F09D1194B5B6A03F0020322
:101DEC00002B03D049F64043BB610FE0FB6803F4C2
:101DFC004073B3F5407F1CD1114B1B6803F40033C7
:101E0C00002B16D04FF22443BB6112E011E0FFF718
:101E1C003BFF02460A4B5B689B0B03F00303013349
:101E2C005B00B2FBF3F3BB6104E000BF02E000BF58
:101E3C0000E000BFBB6918462037BD4680BD00BF1F
:101E4C0000100240082D0008182D000800127A001E
:101E5C0000093D00ABAAAAAA80B582B000AF786099
:101E6C007B68002B01D1012342E07B6893F8413061
:101E7C00DBB2002B06D17B68002283F84020786807
:101E8C00FEF7DEFA7B68242283F841207B681B680E
:101E9C00DA687B681B6822F40052DA60786800F01C
:101EAC0071F97B681B681A697B681B6822F4904285
:101EBC001A617B681B685A697B681B6822F02A02CE
:101ECC005A617B681B68DA687B681B6842F40052B5
:101EDC00DA607B6800225A647B68202283F84120F8
:101EEC007B68202283F842207B6800225A630023FF
:101EFC0018460837BD4680BD80B58AB002AFF86081
:101F0C00B9603B601346FB8000237B61FB6893F850
:101F1C004130DBB2202B75D1BB68002B02D0FB8883
:101F2C00002B01D101236EE0FB6800225A64FB6890
:101F3C00212283F84120FEF739FB7861FB68FA888F
:101F4C009A84FB68FA88DA84FB689B68B3F5805F37
:101F5C0008D1FB681B69002B04D10023FB61BB6813
:101F6C00BB6103E0BB68FB610023BB612EE03B68F7
:101F7C0000937B6900228021F86800F048F8034642
:101F8C00002B05D0FB68202283F8412003233AE084
:101F9C00FB69002B0BD1BB691B881A46FB681B68BD
:101FAC00C2F308025A60BB690233BB6107E0FB69EC
:101FBC001A78FB681B685A60FB690133FB61FB688C
:101FCC00DB8C9BB2013B9AB2FB68DA84FB68DB8C3E
:101FDC009BB2002BCBD13B6800937B690022402144
:101FEC00F86800F014F80346002B05D0FB6820229B
:101FFC0083F84120032306E0FB68202283F841206C
:10200C00002300E0022318462037BD4680BD80B572
:10201C0086B000AFF860B9603B601346FB713BE0E3
:10202C003B6AB3F1FF3F37D0FEF7C0FA02463B687C
:10203C00D31A3A6A9A4202D33B6A002B01D103238A
:10204C003AE0FB681B68DB6803F00403002B23D029
:10205C00BB68802B20D0BB68402B1DD0FB681B6855
:10206C001B6803F00803082B16D100237B61FB6867
:10207C001B681B687B61FB681B685B687B617B6909
:10208C00F86800F01DF8FB6808225A64FB6800220F
:10209C0083F8402001230FE0FB681B681A68BB68BB
:1020AC001340BA689A420CBF01230023DBB21A46D4
:1020BC00FB799A42B4D0002318461837BD4680BD30
:1020CC0080B495B000AF78607B681B680C337B6381
:1020DC007B6B53E8003F3B633B6B23F49073FB64D7
:1020EC007B681B680C33FA6C3A64FB63F96B3A6CD3
:1020FC0041E80023BB63BB6B002BE5D17B681B68FD
:10210C0014333B623B6A53E8003FFB61FB6923F0ED
:10211C000103BB647B681B681433BA6CFA62BB6244
:10212C00B96AFA6A41E800237B627B6A002BE5D12D
:10213C007B681B6B012B19D17B681B680C33FB6014
:10214C00FB6853E8003FBB60BB6823F010037B6463
:10215C007B681B680C337A6CBA617B617969BA69EC
:10216C0041E800233B613B69002BE5D17B682022D1
:10217C0083F842207B6800221A6300BF5437BD46A7
:10218C0080BC704780B584B000AF78607B681B68FA
:10219C001B6923F440517B68DA687B681B680A432F
:1021AC001A617B689A687B681B691A437B685B6958
:1021BC001343BB607B681B68DB6823F4B05323F0CC
:1021CC000C037A681268B9680B43D3607B681B6890
:1021DC005B6923F440717B689A697B681B680A43CE
:1021EC005A617B681B682C4A934203D1FFF74CFD64
:1021FC00F86002E0FFF734FDF860FA6813469B00C4
:10220C0013449A001A447B685B689B00B2FBF3F39F
:10221C00224AA2FB03235B091901FA6813469B00AF
:10222C0013449A001A447B685B689B00B2FBF3F280
:10223C001A4BA3FB02035B09642000FB03F3D31AC4
:10224C001B013233154AA2FB03235B0903F0F00395
:10225C001944FA6813469B0013449A001A447B688D
:10226C005B689B00B2FBF3F20C4BA3FB02035B0914
:10227C00642000FB03F3D31A1B013233074AA2FB81
:10228C0003235B0903F00F027B681B680A449A6006
:10229C0000BF1037BD4680BD003801401F85EB5193
:1022AC00FEF720F90B480C490C4A002302E0D458E5
:1022BC00C4500433C4188C42F9D3094A094C002386
:1022CC0001E013600432A242FBD300F049F8FDF7A1
:1022DC0065FF7047000000205C000020602D0008A6
:1022EC005C00002040020020FEE700000CB430B57A
:1022FC00154B0C1E1D689DB008DA8B234FF0FF3078
:10230C002B601DB0BDE8304002B070474FF00003A9
:10231C001B9318BF0123E31A049307930B4B0290F2
:10232C0006900593284621AB209A02A9019300F050
:10233C0091F9431CBCBF8B232B60002CE1D00022F5
:10234C00029B1A70DDE700BF0C0000200802FFFFA3
:10235C0003460244934200D1704703F8011BF9E78E
:10236C0070B500260C4C0D4B1D1BB6EBA50F09D1FF
:10237C00002600F091FC0A4C0A4B1D1BB6EBA50F76
:10238C0005D170BD54F8043B98470136EDE754F87D
:10239C00043B98470136F1E7582D0008582D0008EA
:1023AC00582D00085C2D00087047704737B5002980
:1023BC0042D051F8043C0C1F002BB8BFE41801901C
:1023CC0000F0DCF81D4A0198136833B9636014609F
:1023DC0003B0BDE8304000F0D7B8A34208D9256857
:1023EC0061198B4201BF19685B6849192160EDE7DF
:1023FC001A465B680BB1A342FAD911685518A5426D
:10240C000BD1246821445418A3421160E0D11C68FC
:10241C005B680C4414605360DAE702D90C23036048
:10242C00D6E7256861198B4201BF19685B684919A9
:10243C00216063605460CBE703B030BD38020020EC
:10244C0070B50F4C0E462168054611B900F0B4FB6F
:10245C0020603146284600F0AFFB431C03D14FF0FF
:10246C00FF34204670BDC41C24F00304A042F8D0F5
:10247C00211A284600F0A0FB0130F2D1EFE700BF93
:10248C00340200202DE9F843CD1C25F00305083556
:10249C000C2D38BF0C25002D064601DBA94204D9B2
:1024AC000C2333600020BDE8F883334F00F066F84E
:1024BC003B681C463CBB29463046FFF7C1FF431C1A
:1024CC00044656D13C68A046B8F1000F40D1002C10
:1024DC0049D023684146304604EB030900F06CFBFD
:1024EC00814540D1216830466D1A2946FFF7A8FF77
:1024FC00013038D023682B4423603B685A685ABBA0
:10250C00C7F800800EE02268521B1ED40B2A16D985
:10251C006119A342256018BF5960636808BF396010
:10252C0062514B60304600F02FF804F10B00231D74
:10253C0020F00700C21A1CBF1B1AA350B3E7626835
:10254C00A3420CBF3A605A60ECE723466468B1E7DB
:10255C004446D8F80480B7E71A465B68A342FBD11F
:10256C0000235360DEE70C233046336000F00CF898
:10257C0098E70560D6E700BF380200200148FFF756
:10258C0013BF00BF300200200148FFF70EBF00BF91
:10259C00300200202DE9F0471F468E688246BE426D
:1025AC000C469046334653D8B1F90C0010F4906F9A
:1025BC002BD065692368096905EB4505A3EB010977
:1025CC0005EBD5757B1C6D104B44AB422A4684BF82
:1025DC001D462A46430527D511465046FFF752FFA4
:1025EC00064658B34A46216900F004FBA38923F43C
:1025FC00906343F08003A38126614E4426603B46E2
:10260C003E466561A5EB0905A5601F463A46414665
:10261C00206800F0B7FA0020A3689B1BA360236816
:10262C003B442360BDE8F087504600F0F1FA0646C3
:10263C000028E1D150462169FFF7B8FE0C23CAF8F7
:10264C000030A3894FF0FF3043F04003A381E9E74A
:10265C003E46DBE72DE9F0471F468B8906461B06F5
:10266C000D4614469CB010D50B6973B94021FFF789
:10267C0009FF2860286130B90C2333604FF0FF301C
:10268C001CB0BDE8F08740236B6100230993202325
:10269C008DF8293030234FF001080397644F8DF8E3
:1026AC002A3023461A7899461AB1252A03F10103D8
:1026BC00F8D1B9EB040A0BD05346224629463046D2
:1026CC00FFF768FF013000F0A380099A5244099289
:1026DC0099F80030002B00F09B8000224FF0FF3364
:1026EC00CDE9053209F10109049207928DF85320C6
:1026FC001A924C46052214F8011B4D4800F06CFA56
:10270C00049AD0B9D00644BF20238DF8533011075A
:10271C0044BF2B238DF8533099F800302A2B13D05B
:10272C004B4600204FF00A0C07991A781C46303A99
:10273C00092A4AD9A8B1079113E0C01B08FA00F086
:10274C001043A1460490D4E7039B191D1B68039109
:10275C00002BBBBF5B4242F0020207930793B8BF4A
:10276C00049223782E2B0AD163782A2B32D1039B27
:10277C0002341A1D1B68039243EAE3730593DFF8D6
:10278C00B49003224846217800F026FA38B1402252
:10279C00049BA0EB0900824013430134049321787D
:1027AC00062225488DF8281000F016FA002835D09E
:1027BC00224818BB039B073323F00703083303930A
:1027CC00099B0134034409936BE701200CFB0121A5
:1027DC000133AAE700234FF00A0C18460593611C3D
:1027EC000A780C46303A092A03D9002BC7D0059039
:1027FC00C5E701230CFB00200131F1E703AB00938B
:10280C002A4630460E4B04A9AFF30080421CD7D1A8
:10281C00AB895B063FF532AF099831E703AB009308
:10282C002A463046064B04A900F082F8EEE700BFBA
:10283C001A2D0008202D0008242D0008000000008F
:10284C00A12500082DE9F047914698468A680B6946
:10285C0007469342B8BF1346C9F8003091F843209D
:10286C000C46089E12B10133C9F800302368990652
:10287C0042BFD9F800300233C9F80030256815F092
:10288C00060507D104F1190AE368D9F800209B1A50
:10289C00AB4229DC94F843302268003B18BF01237B
:1028AC0092062ED44146384604F14302B04701301B
:1028BC0021D02368A16803F00603042B12BF002566
:1028CC00E568D9F80030226904BFED1A25EAE575F0
:1028DC008B1A2B449142C8BF1D464FF000091A3485
:1028EC004D451AD1002008E0012352464146384696
:1028FC00B047013003D14FF0FF30BDE8F087013510
:10290C00C2E73020E11881F843005A1C94F84510B6
:10291C002244023382F84310C4E701232246414685
:10292C003846B0470130E6D009F10109D8E700007C
:10293C002DE9F04398460B7E85B0782B174606465A
:10294C000C460C9A09D8622B01F1430108D8002BD4
:10295C0000F0DC80582B00F0BD8004F1420539E01A
:10296C00A3F163001528F8D801A555F820F000BF95
:10297C00D5290008E92900086729000867290008FB
:10298C006729000867290008E92900086729000859
:10299C00672900086729000867290008F92A000838
:1029AC00152A0008A72A00086729000867290008CB
:1029BC00212B000867290008152A00086729000840
:1029CC0067290008AF2A0008136804F14205191D95
:1029DC001B68116084F842300123A8E01368256855
:1029EC00181D1060280601D51B6803E06A06FBD58C
:1029FC00B3F90030002B03DA2D225B4284F843201C
:102A0C000A22DFF878C113E02568106815F0800FF2
:102A1C0050F8043B02D16D0648BF9BB21060227E79
:102A2C00DFF858C16F2A5DD10822002084F84300DA
:102A3C006568002DA56005DB20681D4320F00400AF
:102A4C00206051D00D46B3FBF2F002FB103E1CF897
:102A5C000EE09A4205F801ED0346F4D9082A0BD191
:102A6C002368DA0708D5236962689A42DEBF3023EF
:102A7C0005F8013C05F1FF35491B21613B46214618
:102A8C003046CDF8008003AAFFF7DCFE013053D1AD
:102A9C004FF0FF3005B0BDE8F083236843F020030E
:102AAC0023607823DFF8D8C084F845302068156897
:102ABC0010F0800F55F8043B03D110F0400F18BFF5
:102ACC009BB21560C50744BF40F02000206023B1C5
:102ADC001022AAE7DFF8A4C0E6E7226822F0200261
:102AEC002260F5E70A22A0E70D46B7E71368D4F891
:102AFC0000C01D1D60691CF0800F15601B6801D0A3
:102B0C00186003E01CF0400FFAD0188000230D462B
:102B1C002361B3E71368191D11601D680021284655
:102B2C00626800F059F808B1401B6060636823616B
:102B3C00002384F84330A1E72A46394630462369FE
:102B4C00C0470130A4D023689B0714D4E068039BD2
:102B5C009842B8BF18469DE701233946304604F128
:102B6C001902C047013093D00135E36803995B1A11
:102B7C00AB42F1DCEAE70025F7E700BF2B2D00089C
:102B8C003C2D0008884210B501EB020402D98442A6
:102B9C00234607D8431EA14207D011F8012B03F896
:102BAC00012FF8E70244824200D110BD13F8011D39
:102BBC0002F8011DF7E7000038B50023054C054667
:102BCC000846236000F05AF8431C02D1236803B175
:102BDC002B6038BD2C020020034610B5C9B202444C
:102BEC00934201D1002004E01846047801338C4252
:102BFC00F6D110BD0A44914200F1FF3300D1704769
:102C0C0010B511F8014B914203F8014FF9D110BDE9
:102C1C002DE9F041074615460C4621B91146BDE891
:102C2C00F041FFF72FBC2AB9FFF7C0FB2C4620461A
:102C3C00BDE8F08100F01AF88542064602D8B5EBE3
:102C4C00500FF4D829463846FFF71CFC804608B9CB
:102C5C004446ECE7B5422A46214628BF3246FFF7E8
:102C6C00C9FF21463846FFF7A1FBF1E751F8043CB8
:102C7C00181F002BBCBF0B58C0187047044A0549DD
:102C8C001368002B08BF0B46184410601846704799
:102C9C003C02002040020020F8B500BFF8BC08BC84
:102CAC009E467047F8B500BFF8BC08BC9E467047FE
:102CBC00414443203D20256C752C20566F6C74616B
:102CCC006765203D20256C75206D560D0A000000AF
:102CDC0000000000000000000102030406070809C0
:102CEC0000000000010203040203040506070809A2
:102CFC000A0B0C0D0E0F101001020000020304054C
:102D0C00060708090A0B0C0D0E0F10100102232DDB
:102D1C00302B2000686C4C006566674546470030D8
:102D2C003132333435363738394142434445460025
:102D3C003031323334353637383961626364656625
:042D4C000000000083
:082D5000BCD3FF7F010000006D
:042D580085010008E9
:042D5C005D0100080D
:102D600000127A0010000000010000001000002096
:102D700000000000F40000205C010020C4010020DD
:102D80000000000000000000000000000000000043
:102D90000000000000000000000000000000000033
:102DA0000000000000000000000000000000000023
:0C2DB00000000000000000000000000017
:04000005080022AD20
:00000001FF
